:100000000C943F070C9467070C9467070C946707E0
:100010000C9467070C9467070C9467070C9495077A
:100020000C9467070C9467070C94D82F0C94B62E89
:100030000C9467070C9467070C9467070C94670788
:100040000C9467070C9467070C9467070C94670778
:100050000C9467070C9467070C9467070C949F2710
:100060000C9467070C9467070C9467070C94670758
:100070000C9467070C9467070C9467070C94670748
:100080000C9467070C9467070C9467070C94670738
:100090000C94F1160C9467070C9467070C9467078F
:1000A0000C9467070C9467070C946707036EDB36A4
:1000B0003D9A9999993DABAAAA2A3E000000803F3B
:1000C000084AD73B3BCE016E84BCBFFDC12F3D6CBF
:1000D00074319ABD56833DDA3D00C77F11BED9E425
:1000E000BB4C3E916BAAAABE000000803F072C7A51
:1000F000A5BA6CC590DA3B9365FC8BBC53F810FD38
:100100003C5692834DBD879D3AB63DCBC9BF5BBE81
:1001100073DA0FC93F05A84CCDB2D44EB93836A911
:10012000020C50B9918688083CA6AAAA2ABE0000F3
:1001300000803F000000700000000024000000026A
:100140000003000000650054FFEF0000FA80000B80
:1001500012820001030C30C30E8C8CE914D54002CE
:1001600013710F8E3883F8833000F883258EF8835F
:100170003000F883FFFFFFFF0FFEA9D62400040024
:100180001A8279A10000003CFFFF0000001000006F
:1001900038836FA2003E03304000000002CAE3092A
:1001A0003E80000020000000000000004000000031
:1001B00060000000000C0000000C186E00000692A9
:1001C0000A16C0DFFFFF0256FD8CD377FFE1C4960D
:1001D000E0C5BEAA00000000FFFF0B2B0000165771
:1001E000000003594000000000001DFA00026C1DD1
:1001F000000000003FFFDFEB003EB3B6000D2278A9
:1002000000002F3C00000000001942B5000039A298
:100210000000B365D90E9FC91DCF4C3430000000DB
:10022000500000003BB67AE80064000000C80000FF
:1002300000000000100000001000FA921000225E82
:10024000000D229F0001000000320000FF46000068
:1002500063D400001000000004D6000004CC0000AD
:1002600004CC0000000010720000004000000000FC
:10027000000000000006000200050007000000006A
:10028000006400000000000000000005000500649C
:1002900000200000000000000000000000004000FE
:1002A0000000030000000032F8980000FF65000025
:1002B000830F0000FF9BFC00000000000000000016
:1002C000000000000000000000000000000000002E
:1002D000000000000000000000000000000000001E
:1002E0000000100040000000000000060000B26A9C
:1002F000000200000001FB830068000000D9FC0040
:100300007CF1FF830000000000650000006403E84A
:1003100000640028000000250000000016A0000076
:100320000000100000001000002F0000000001F489
:100330000000100000280000FFFF4581FFFFFA7257
:100340000000000000000000004400050005BAC6DF
:10035000004778A200000001000000000000060035
:10036000000000140000254D002F706D000005AE48
:10037000000C02D00000000000000000000000009F
:1003800000000000001B0000000000000000000052
:1003900000000000006400000008000000000000F1
:1003A000000000000000000000000000000000004D
:1003B000000000000000000000000000000000003D
:1003C000000000000000000000000000000000002D
:1003D000000000000000000000000000000000001D
:1003E000000000000000000000000000000000000D
:1003F00000000000001B00000000000000000000E2
:10040000000E000E00000AC70004000000000032C9
:10041000FFFFFF9C00000B2B00000002000000010A
:1004200000000064FFE50000000000000000000084
:1004300000000000000000010000000000010000BA
:100440000000000000018000000180000001800029
:10045000002426D300000000000000000006001069
:100460000096003C000000000000000000000000BA
:10047000000000000C0A4E68CDCF7709501667596E
:10048000C619CE820000000000000000000000003D
:1004900000000000000000000000000017D78400EA
:1004A000030000000000000000000000C7938F9DC3
:1004B0001E1B1C19000000000000000000000000CE
:1004C000000000000000000000000000020318858A
:1004D00000004000000000030000000300000000D6
:1004E00000000000400000000000000000000000CC
:1004F00000000000000000000000000000000000FC
:1005000000000000000000000000000000000000EB
:100510000000000000000000677DDF7E72902E5515
:100520004CF6E6880000000000000000000000001B
:1005300000000000D8DCB4B8B0D8B9ABF3F8FAB317
:10054000B7BB8E9EAEF132F51BF1B4B8B08097F117
:10055000A9DFDFDFAADFDFDFF2AAC5CDC7A90CC99B
:100560002C97F1A989264666B28999A92D557DB0A7
:10057000B08AA896365676F1BAA3B4B280C0B8A8AD
:100580009711B28398BAA3F0240844106418B2B942
:10059000B49883F1A329557DBAB5B1A38393F00034
:1005A0002850F5B2B6AA839328547CF1B9A382935C
:1005B00061BAA2DADEDFDB819AB9AEF5606870F16C
:1005C000DABAA2DFD9BAA2FAB9A38292DB31BAA20F
:1005D000D9BAA2F8DF85A4D0C1BBAD83C2C5C7B864
:1005E000A2DFDFDFBAA0DFDFDFD8D8F1B8AAB38D92
:1005F000B4980D355DB2B6BAAF8C96198F9FA70E21
:10060000161EB49AB8AA872C547CBAA4B08AB691A4
:10061000325676B28494A4C808CDD8B8B4B0F19953
:1006200082A82D557D98A80E161EA22C547C92A44B
:10063000F02C5078F184A898C4CDFCD80DDBA8FC30
:100640002DF3D9BAA6F8DABAA6DED8BAB2B686962B
:10065000A6D0F3C841DAA6C8F8D8B0B4B882A89238
:10066000F52C548898F135D9F418D8F1A2D0F8F9BE
:10067000A884D9C7DFF8F883C5DADF69DF83C1D87A
:10068000F40114F1A8824EA884F311D182F5D99215
:10069000289788F109F41C1CD884A8F3C0F9D1D993
:1006A0009782F129F40DD8F3F9F9D1D982F4C20374
:1006B000D8DEDF1AD8F1A2FAF9A88498D9C7DFF8F2
:1006C000F8F883C7DADF69DFF883C3D8F40114F1DF
:1006D00098A8822EA884F311D182F5D992509788D8
:1006E000F109F41CD884A8F3C0F8F9D1D99782F1A4
:1006F00049F40DD8F3F9F9D1D982F4C403D8DEDF77
:10070000D8F1AD8898CCA809F9D98292A8F57CF1E6
:10071000883ACF944A6E98DB6931DAADF2DEF9D8C7
:100720008795A8F221D1DAA5F9F417D9F1AE8ED0C8
:10073000C0C3AE82C684C3A88595C8A588F2C0F19F
:10074000F4010EF18E9EA8C63E56F554F18872F45F
:100750000115F19845856EF58E9E0488F142985AF0
:100760008E9E068869F4011CF1981E1108D0F504CC
:10077000F11E970202983625DBF9D985A5F3C1DA77
:1007800085A5F3DFD88595A8F309DAA5FAD8829272
:10079000A8F578F1881A849F26889821DAF41DF349
:1007A000D8879F39D1AFD9DFDFFBF9F40CF3D8FA42
:1007B000D0F8DAF9F9D0DFD9F9D8F40BD8F3879F5C
:1007C00039D1AFD9DFDFF41DF3D8FAFCA869F9F904
:1007D000AFD0DADEFAD9F88F9FA8F1CCF398DB45D9
:1007E000D9AFDFD0F8D8F18F9FA8CAF38809DAAF64
:1007F0008FCBF8D8F2AD978D0CD9A5DFF9BAA6F357
:10080000FAF412F2D8950DD1D9BAA6F3FADAA5F214
:10081000C1BAA6F3DFD8F1BAB2B68696A6D0CAF3AB
:1008200049DAA6CBF8D8B0B4B8D8AD84F2C0DFF1BD
:100830008FCBC3A8B2B68696C8C1CBC3F3B0B48879
:1008400098A821DB718D9D71859521D9ADF2FAD8DB
:100850008597A828D9F408D8F28D29DAF405D9F2B9
:1008600085A4C2F2D8A88D9401D1D9F411F2D88709
:1008700021D8F40AD8F28498A8C801D1D9F411D8A3
:10088000F3A4C8BBAFD0F2DEF8F8F8F8F8F8F8F83F
:10089000D8F1B8F6B5B9B08A95A3DE3CA3D9F8D89B
:1008A0005CA3D9F8D87CA3D9F8D8F8F9D1A5D9DFB9
:1008B000DAFAD8B18530F7D9DED8F830ADDADED83B
:1008C000F2B48C99A32D557DA083DFDFDFB591A015
:1008D000F629D9FBD8A0FC29D9FAD8A0D051D9F84B
:1008E000D8FC51D9F9D879D9FBD8A0D0FC79D9FA5C
:1008F000D8A1F9F9F9F9F9A0DADFDFDFD8A1F8F822
:10090000F8F8F8ACDEF8ADDE8393AC2C547CF1A89B
:10091000DFDFDFF69D2CDAA0DFD9FADB2DF8D8A8CF
:1009200050DAA0D0DED9D0F8F8F8DB55F8D8A8789E
:10093000DAA0D0DFD9D0FAF8F8F8F8DB7DF8D89C47
:10094000A88CF530DB38D9D0DEDFA0D0DEDFD8A828
:1009500048DB58D9DFD0DEA0DFD0DED8A868DB7056
:10096000D9DFDFA0DFDFD8F1A888902C547C98A8CD
:10097000D05C38D1DAF2AE8CDFF9D8B087A8C1C12B
:10098000B188A8C6F9F9DA36D8A8F9DA36D8A8F9BC
:10099000DA36D8A8F9DA36D8A8F9DA36D8F78D9D3C
:1009A000ADF818DAF2AEDFD8F7ADFA30D9A4DEF937
:1009B000D8F2AEDEFAF983A7D9C3C5C7F1889BA7E1
:1009C0007AADF7DEDFA4F8849408A797F300AEF2BF
:1009D0009819A488C6A39488F632DFF28393DB09C2
:1009E000D9F2AADFD8D8AEF8F9D1DAF3A4DEA7F1AC
:1009F000889B7AD8F38494AE19F9DAAAF1DFD8A8E3
:100A000081C0C3C5C7A39283F628ADDED9F8D8A3A9
:100A100050ADD9F8D8A378ADD9F8D8F8F9D1A1DA82
:100A2000DEC3C5C7D8A18194F818F2B089ACC3C59C
:100A3000C7F1D8B8B4B09786A8319B069907AB9791
:100A400028889BF00C201440B0B4B8F0A88A9A28EB
:100A50005078B79BA8295179247059446938644863
:100A600031F1BBAB88002C547CF0B38BB8A80428C0
:100A70005078F1B088B49726A85998BBABB38B02D5
:100A8000264666B0B8F08A9CA82951798B295179FD
:100A90008A2470598B2058718A4469388B39406890
:100AA0008A6448318B30496088F1AC002C547CF06A
:100AB0008CA804285078F1889726A85998AC8C0205
:100AC000264666F0899CA8295179247059446938D2
:100AD000644831A98809205970AB11384069A819B8
:100AE0003148608CA83C415C207C00F187981986D5
:100AF000A86E767EA999882D557DD8B1B5B9A3DFAA
:100B0000DFDFAED0DFAAD0DEF2ABF8F9D9B087C410
:100B1000AAF1DFDFBBAFDFDFB9D8B1F1A3978E60F9
:100B2000DFB084F2C8F8F9D9DED89385F14AB183F1
:100B3000A308B5839A0810B79F10D8F1B0BAAEB029
:100B40008AC2B2B68E9EF1FBD9F41DD8F9D90CF148
:100B5000D8F8F8AD61D9AEFBD8F40CF1D8F8F8ADFF
:100B600019D9AEFBDFD8F416F1D8F8AD8D61D9F400
:100B7000F4ACF59C9C8DDF2BBAB6AEFAF8F40BD82A
:100B8000F1AED0F8AD51DAAEFAF8F1D8B9B1B6A3FA
:100B9000839C08B9B1839AB5AAC0FD3083B79F1072
:100BA000B58B93F20202D1ABDADED8F1B080BAABEA
:100BB000C0C3B284C1C3D8B1B9F38BA391B609B491
:100BC000D9ABDEB0879CB9A3DDF1B38B8B8B8B8B5C
:100BD000B087A3A3A3A3B28BB69BF2A3A3A3A3A3A3
:100BE000A3A3A3A3A3F1B087B59AA3F39BA3A3DC0C
:100BF000BAACDFB9A3A3A3A3A3A3A3A3A3A3A3A353
:100C0000A3A3A3A3D8D8D8BBB3B7F1AAF9DAFFD965
:100C1000809AAA28B48098A720B79787A86688F0FA
:100C20007951F1902C870CA781976293F0717160D4
:100C300085940129517990A5F1284C6C870C951861
:100C40008578A38390284C6C886CD8F3A28200F23C
:100C500010A8921980A2F2D926D8F188A84DD948B7
:100C6000D896A83980D93CD89580A839A68698D935
:100C70002CDA87A72CD8A8899519A980D938D8A8A3
:100C80008939A980DA3CD8A82EA83990D90CD8A8DF
:100C9000953198D90CD8A809D9FFD801DAFFD89591
:100CA00039A9DA26FFD890A80D8999A81080982133
:100CB000DA2ED88999A83180DA2ED8A88696318084
:100CC000DA2ED8A8873180DA2ED8A88292F3418014
:100CD000F1D92ED8A882F31980F1D92ED882ACF39D
:100CE000C0A28022F1A62EA72EA92298A829DAACAC
:100CF000DEFFD8A2F22AF1A92E8292A8F23180A6B4
:100D000096F1D900AC8C9C0C30ACDED0DEFFD88CD8
:100D10009CACD010ACDE8092A2F24C82A8F1CAF258
:100D200035F19688A6D900D8F1FF0000000200092D
:100D30000F0000030401000C000000000000000090
:100D40000000000000000000040802011040804084
:100D500010204080408008020401804020100201E1
:100D6000108010204040040404040403040502021F
:100D70000202040302020202060606060606040434
:100D800002020204000000002300260029002C00BB
:100D90002F0000000000250028002B002E0031004D
:100DA00000000000240027002A002D003000080B5E
:100DB0000002020201000904000001020200000515
:100DC0002400100105240101010424020605240663
:100DD00000010705810310004009040100020A0018
:100DE00000000705020240000007058302400000E2
:100DF0000904020001030000000921010100012291
:100E000022000705840340000105010904A10185B2
:100E1000010901A1000501093009310932160080DC
:100E200026FF7F751095038182C0C000C18081C1FB
:100E3000120100020200004041233680000101023D
:100E40000001120100020000004041233680000131
:100E50000102000141726475696E6F204C4C4300C1
:100E60004544547261636B657220454454726163FA
:100E70006B65723200040309040002163C2A112437
:100E80001FBECFEFDAE0DEBFCDBF12E0A0E0B1E0E1
:100E9000E4EEF9E602C005900D92A434B107D9F74B
:100EA00024E0A4E4B2E001C01D92AE32B207E1F743
:100EB00017E0CFE3D7E004C02197FE010E94A634DB
:100EC000CD33D107C9F70E944B300C94F0340C9409
:100ED00000001F93CF93DF93EC01162F472FBC0127
:100EE0006F5F7F4F81E093E00E943E15412FBE016E
:100EF00081E093E0DF91CF911F910C943E151F93F9
:100F0000CF93DF93EC01BC016F5F7F4F81E093E0F3
:100F10000E943B15182FBE0181E093E00E943B1513
:100F2000912FDF91CF911F9108951F920F920FB6CD
:100F30000F9211248F9381E080934E028F910F9036
:100F40000FBE0F901F9018958FEF92E00E94D61E53
:100F500084E690E00E94B91B89E70E94271E88E77B
:100F60000E94BF1B88EC90E00E94BE1D0E947B2265
:100F7000E0910001F0E0E256FE4F808190E00E9497
:100F8000852280ED90E00E94A42588EC90E00C94EE
:100F90004423EAE6F0E0808180638083EE9A81E07A
:100FA0000C94C1214091E6025091E7026091E80261
:100FB0007091E9028091EE029091EF02A091F0020F
:100FC000B091F10284179507A607B70710F561E005
:100FD0008091E502811160E06093E50281E10E9469
:100FE0002029209101018091E6029091E702A091D1
:100FF000E802B091E902222369F08C599F4FAF4F6C
:10100000BF4F8093EE029093EF02A093F002B09353
:10101000F10208958C509E4FAF4FBF4FF2CFCF9249
:10102000DF92EF92FF926B017C0120E030E040E024
:1010300057E40E945733181654F420E030E040E89B
:1010400057E4C701B6010E945F306B017C0120E0CC
:1010500030E040E057ECC701B6010E94593187FFEC
:101060000AC020E030E040E857E4C701B6010E9422
:1010700060306B017C01C701B601FF90EF90DF90FB
:10108000CF900895CF92DF92EF92FF92809100036C
:10109000882331F060E871E084ED93E00E94F52A46
:1010A00010926802109267021092D5021092D60236
:1010B0001092D7021092D8021092D9021092DA023E
:1010C0001092DB021092DC021092DD021092DE021E
:1010D0001092DF021092E0021092E1021092E202FE
:1010E0001092E3021092E40210920301109269023E
:1010F000C0907102D0907202E0907302F09074027E
:1011000020E030EC4AED56E4C701B6010E945733A7
:10111000181654F020E030EC4AED56ECC701B60149
:101120000E94593187FF03C081E080936902FF90DC
:10113000EF90DF90CF9008958091FE02882309F40C
:1011400045C06FE170E081E093E00E943B15682F9D
:1011500070E090E080E00E940B3220E030E040E858
:101160005EE30E9464336093F2027093F302809313
:10117000F4029093F50260E270E081E093E00E9457
:101180003B15682F70E090E080E00E940B3220E079
:1011900030E040E85EE30E9464336093F6027093AF
:1011A000F7028093F8029093F9028091F6029091F1
:1011B000F702A091F802B091F9028093FA0290939D
:1011C000FB02A093FC02B093FD0208956DE170E074
:1011D00081E093E00E943B15682F70E090E080E092
:1011E0000E940B3220E030E040E85EE30E9464336E
:1011F0006093F2027093F3028093F4029093F502ED
:101200006EE170E0BACF20E030E040E850E4609159
:10121000F2027091F3028091F4029091F5020E9423
:1012200064330E94D531462F8091FE02882309F451
:1012300041C06FE170E081E093E00E943E1520E044
:1012400030E040E850E46091F6027091F70280913E
:10125000F8029091F9020E9464330E94D531462F22
:1012600060E270E081E093E00E943E158091F6021A
:101270009091F702A091F802B091F9028093FA02DE
:101280009093FB02A093FC02B093FD0220E03EEF9E
:101290004FEF56E4609104017091050180910601C1
:1012A000909107010E9464330E94D5318AE190E059
:1012B0000C9469076DE170E081E093E00E943E15B7
:1012C00020E030E040E850E46091F6027091F702CF
:1012D0008091F8029091F9020E9464330E94D53106
:1012E000462F6EE170E0BECF64E871E084ED93E0DC
:1012F0000E94D22A64EA71E084ED93E00C94F52A0E
:101300000E94420810924D0210924C0281E080939C
:101310000101089565E871E084ED93E00C94D22A10
:101320000F931F93CF93DF93EC018C010A5F1F4F44
:10133000699179914AE050E084ED93E00E94AD2BF1
:101340000E948A09C017D10799F7DF91CF911F91A9
:101350000F910895CF93C62F682F84ED93E00E94DC
:10136000DA2A0E948A094AE050E06C2F84ED93E06B
:10137000CF910C94DA2BCF93DF9367E871E084ED83
:1013800093E00E94D22A4AE050E06091FE0284ED90
:1013900093E00E94D32B0E948A09C2EFD2E04881D9
:1013A00059816A817B8122E030E084ED93E00E94E4
:1013B000D22C0E948A094C815D816E817F8122E05E
:1013C00030E084ED93E00E94D22C0E948A09409183
:1013D000040150910501609106017091070122E01E
:1013E00030E084ED93E0DF91CF910C94D42C0F93F7
:1013F0001F93CF93DF938C016AE871E084ED93E053
:101400000E94D22AE8010A5F1F4F699179914AE050
:1014100050E084ED93E00E94AD2B0E948A09C01732
:10142000D10799F766E871E084ED93E0DF91CF9101
:101430001F910F910C94F52ACF93DF936DE871E023
:1014400084ED93E00E94D22AC9ECD2E049915991EF
:101450006991799126E030E084ED93E00E94D22CEE
:101460000E948A0982E0C53DD80781F7C5EAD2E02B
:1014700049915991699179912DE030E084ED93E0A3
:101480000E94D22C0E948A0982E0C93CD80781F7C9
:1014900066E871E084ED93E0DF91CF910C94F52A3A
:1014A0000F931F93CF93DF9309EC12E0C8E2D0E0D3
:1014B000CE010E947F07BC01990F880B990B0E94F7
:1014C0000D3220E030E040E85CE30E946433F80134
:1014D00061937193819391938F012296CE32D105BE
:1014E00039F701E812E0C2E3D0E0CE010E947F07A5
:1014F000BC01990F880B990B0E940D3220E030E05F
:1015000040E059E30E946433F80161937193819341
:1015100091938F012296C635D10539F7DF91CF918E
:101520001F910F91089569E170E081E093E00E94BE
:101530003B1569E170E081E093E00E943B15843047
:1015400058F569E170E081E093E00E943B158093DB
:1015500000016CE170E081E093E00E943B15809314
:10156000FE020E949C088AE190E00E947F07BC0175
:10157000990F880B990B0E940D3220E03EEF4FEF40
:1015800056E40E94633160930401709305018093D7
:10159000060190930701089583E0D9CF40E052EC13
:1015A00061E070E084ED93E00E94362A62E08AE018
:1015B0000E94E42861E081E10E94E42861E082E089
:1015C0000E94202960E082E00E9420290E94930A64
:1015D0000E94500A82E093E00E94C8158CE080933C
:1015E000B800589859980E94A4070C94C907AF9264
:1015F000BF92CF92DF92EF92FF920F931F93CF9300
:10160000DF9384ED93E00E94A129181619060CF0CF
:1016100069C184ED93E00E94B129833409F080C050
:1016200084ED93E00E94B1296C0184ED93E00E9467
:10163000B129D82F80E0C82FBE016C297D29072E43
:10164000000C880B990B0E940D3220E030E040E83E
:101650005BE30E9464336093F2027093F302809321
:10166000F4029093F50284ED93E00E94B1296C019D
:1016700084ED93E00E94B129182F00E0B8016C2995
:101680007D29072E000C880B990B0E940D3220E05B
:1016900030E040E85BE30E9464336093F6027093AD
:1016A000F7028093F8029093F90284ED93E00E9490
:1016B000B1296C0184ED93E00E94B129F82EE12C50
:1016C000B7016C297D29072E000C880B990B0E940D
:1016D0000D3220E03EEF4FEF56E40E9463316093FD
:1016E000040170930501809306019093070160E95E
:1016F00071E084ED93E00E94D22A40910401509160
:101700000501609106017091070122E030E084ED4F
:1017100093E00E94D42C0E9403090E94BB0971CF60
:10172000833569F41092000363E971E084ED93E07E
:101730000E94F52A88EC90E00E94442362CF88340E
:1017400069F48091010165E971E0811102C067E9E6
:1017500071E084ED93E00E94F52A53CF843791F431
:1017600081E09091FE02911180E08093FE020E9440
:101770009C084091FE026CE170E081E093E00E94E1
:101780003E15CBCF8635A1F469E971E084ED93E095
:101790000E94F52A0E9474090E94BB0981E080938F
:1017A000000384E690E00E9444230E941C0A29CF93
:1017B000893461F40E9474090E94BB090E941C0ACA
:1017C000609100018FE40E94AA091BCF803519F5B2
:1017D00080E00E94C1218091000190E00196837019
:1017E00099278093000182569E4FFC01808190E0F2
:1017F0000E94852281E00E94C121609100018FE456
:101800000E94AA094091000169E170E081E093E043
:101810000E943E15F6CE823519F40E944208F1CEA0
:10182000823719F40E948009ECCE873569F584ED82
:1018300093E00E94B129D12CC12C5C01BB24CA14B5
:10184000DB0474F484ED93E00E94B129482FB601C3
:1018500081E093E00E943E15FFEFCF1ADF0AEFCF41
:101860000E94930A0E94500A80E00E94C121E091E8
:101870000001F0E0E256FE4F808190E00E94852258
:1018800081E00E94C121BDCE843209F0BACE98E237
:10189000C92ED12C84ED93E00E94B129482FB601C6
:1018A00081E093E00E943E158FEFC81AD80AEEE25D
:1018B000CE16D10479F782E3C82ED12C84ED93E0C3
:1018C0000E94B129482FB60181E093E00E943E15A5
:1018D000FFEFCF1ADF0A86E5C816D10479F70E9418
:1018E000500A8FCEDF91CF911F910F91FF90EF9013
:1018F000DF90CF90BF90AF9008952F923F924F927C
:101900005F926F927F928F929F92AF92BF92CF928F
:10191000DF92EF92FF920F931F93CF93DF93CDB798
:10192000DEB7C556D1090FB6F894DEBF0FBECDBFE6
:1019300080914E028823E1F30E94E9276093E6023A
:101940007093E7028093E8029093E90281E090E0CF
:10195000A0E0B0E023968CAF9DAFAEAFBFAF2397B2
:101960009E012B5B3F4F79018E010D5B1F4F26506F
:101970003109AE014F5F5F4FBE01615D7F4FCE0108
:10198000C5960E94BE2626968FAD2697811102C06D
:1019900010924E0223968CAD9DADAEADBFAD239798
:1019A000892B8A2B8B2B09F099C36D857E858F85BA
:1019B00098890E940D3220E030E040E850E30E9418
:1019C00064336B017C0169857A858B859C850E94D7
:1019D0000D3220E030E040E850E30E9464332A9664
:1019E0006CAF7DAF8EAF9FAF2A976D817E818F8167
:1019F00098850E940D3220E030E040E850E30E94DC
:101A000064332E966CAF7DAF8EAF9FAF2E976981FA
:101A10007A818B819C810E940D3220E030E040E889
:101A200050E30E9464332B013C01AC019B010E94F6
:101A300064336A966CAF7DAF8EAF9FAF6A972E9678
:101A40002CAD3DAD4EAD5FAD2E97CA01B9010E94E0
:101A500064336E966CAF7DAF8EAF9FAF6E972A9654
:101A60002CAD3DAD4EAD5FAD2A97CA01B9010E94C4
:101A70006433A2966CAF7DAF8EAF9FAFA297A701E4
:101A80009601C701B6010E946433A6966CAF7DAF84
:101A90008EAF9FAFA6976E962CAD3DAD4EAD5FADB0
:101AA0006E976A966CAD7DAD8EAD9FAD6A970E94C4
:101AB0005F30A2962CAD3DAD4EAD5FADA2970E94BA
:101AC0005F30A6962CAD3DAD4EAD5FADA6970E94A2
:101AD00060304B015C012A962CAD3DAD4EAD5FAD43
:101AE0002A97C701B6010E94643362966CAF7DAF3E
:101AF0008EAF9FAF6297A30192012E966CAD7DAD24
:101B00008EAD9FAD2E970E9464339B01AC0162960F
:101B10006CAD7DAD8EAD9FAD62970E9460309B0134
:101B2000AC010E946030A50194010E94FA306296D7
:101B30006CAF7DAF8EAF9FAF62976DA37EA38FA377
:101B400098A72E962CAD3DAD4EAD5FAD2E97C7013B
:101B5000B6010E9464334B015C01A30192012A96F5
:101B60006CAD7DAD8EAD9FAD2A970E9464339B0115
:101B7000AC01C501B4010E945F309B01AC010E9421
:101B800060300E94CC3066966CAF7DAF8EAF9FAF59
:101B9000669769A37AA38BA39CA36E962CAD3DADEB
:101BA0004EAD5FAD6E976A966CAD7DAD8EAD9FAD5F
:101BB0006A970E946030A2962CAD3DAD4EAD5FADF0
:101BC000A2970E945F30A6962CAD3DAD4EAD5FADA5
:101BD000A6970E945F304B015C012E962CAD3DAD67
:101BE0004EAD5FAD2E972A966CAD7DAD8EAD9FAD9F
:101BF0002A970E9464332A966CAF7DAF8EAF9FAF59
:101C00002A97A3019201C701B6010E9464339B0188
:101C1000AC012A966CAD7DAD8EAD9FAD2A970E942A
:101C200060309B01AC010E946030A50194010E94CC
:101C3000FA309B01AC0150582A962CAF3DAF4EAF05
:101C40005FAF2A972D8F3E8F4F8F58A3CE01899675
:101C50000E94092281110CC380910003882321F086
:101C6000CE0189960E94F70969A57AA5072E000C76
:101C7000880B990B0E940D322091C9023091CA0243
:101C80004091CB025091CC020E945F304B015C012D
:101C90006BA57CA5072E000C880B990B0E940D32BA
:101CA0002091CD023091CE024091CF025091D002CE
:101CB0000E945F306B017C016DA57EA5072E000C94
:101CC000880B990B0E940D322091D1023091D202E3
:101CD0004091D3025091D4020E945F302E966CAF97
:101CE0007DAF8EAF9FAF2E9720918D0230918E02E7
:101CF00040918F0250919002C501B4010E9464335B
:101D00002B013C012091910230919202409193026B
:101D100050919402C701B6010E9464339B01AC014B
:101D2000C301B2010E9460302B013C012091950259
:101D30003091960240919702509198022E966CAD88
:101D40007DAD8EAD9FAD2E970E9464339B01AC019B
:101D5000C301B2010E9460306A966CAF7DAF8EAF56
:101D60009FAF6A972091990230919A0240919B020D
:101D700050919C02C501B4010E9464332B013C01C7
:101D800020919D0230919E0240919F025091A002AD
:101D9000C701B6010E9464339B01AC01C301B201CB
:101DA0000E9460302B013C012091A1023091A202DF
:101DB0004091A3025091A4022E966CAD7DAD8EADE4
:101DC0009FAD2E970E9464339B01AC01C301B20109
:101DD0000E9460306E966CAF7DAF8EAF9FAF6E97F6
:101DE00062966CAD7DAD8EAD9FAD62970E945E3107
:101DF000A2966CAF7DAF8EAF9FAFA29762966CAD8F
:101E00007DAD8EAD9FAD629790580E94D1332B016E
:101E10003C0166966CAD7DAD8EAD9FAD66970E9420
:101E2000D13362966CAF7DAF8EAF9FAF62976696EF
:101E30006CAD7DAD8EAD9FAD66970E945E316696AE
:101E40006CAF7DAF8EAF9FAF6697209181023091CE
:101E500082024091830250918402C501B4010E9424
:101E600064334B015C0120918502309186024091E0
:101E7000870250918802C701B6010E9464339B011A
:101E8000AC01C501B4010E9460306B017C0120915E
:101E9000890230918A0240918B0250918C022E96D9
:101EA0006CAD7DAD8EAD9FAD2E970E9464339B01CE
:101EB000AC01C701B6010E946030A2962CAD3DADC9
:101EC0004EAD5FADA2970E9464336B017C016A96B0
:101ED0002CAD3DAD4EAD5FAD6A97C301B2010E941E
:101EE000643362962CAD3DAD4EAD5FAD62970E94FE
:101EF00064339B01AC01C701B6010E9460306B01E5
:101F00007C016E962CAD3DAD4EAD5FAD6E97C301BD
:101F1000B2010E94643366962CAD3DAD4EAD5FAD0F
:101F200066970E9464339B01AC01C701B6010E9411
:101F300060306B017C016E962CAD3DAD4EAD5FAD5A
:101F40006E9762966CAD7DAD8EAD9FAD62970E942F
:101F500064334B015C016A962CAD3DAD4EAD5FAD77
:101F60006A9766966CAD7DAD8EAD9FAD66970E940B
:101F700064339B01AC01C501B4010E945F309058ED
:101F8000A70196010E94FA302DE338EF42E256ECA9
:101F90000E9464330E940F08609371027093720272
:101FA00080937302909374026093790270937A0223
:101FB00080937B0290937C0220910301222391F075
:101FC0002091E1023091E2024091E3025091E4025B
:101FD0000E945F306093790270937A0280937B0253
:101FE00090937C02809169028823B1F020E030E078
:101FF00040E057E46091790270917A0280917B020F
:1020000090917C020E9460306093790270937A0212
:1020100080937B0290937C026091790270917A02A6
:1020200080917B0290917C020E940F08609379025C
:1020300070937A0280937B0290937C0280910101DD
:10204000882309F415C10E94D2070E94F70A8091E3
:102050004C0290914D02009709F05AC010925B0219
:1020600010925C0210925D0210925E0210924F027A
:1020700010925002109251021092520210925F027E
:10208000109260021092610210926202109253024A
:10209000109254021092550210925602109263024E
:1020A000109264021092650210926602109257021A
:1020B000109258021092590210925A028FE492E044
:1020C0000E94A81981E090E090934D0280934C0209
:1020D00084EF91E090934B0280934A02CB59DF4FFB
:1020E0000FB6F894DEBF0FBECDBFDF91CF911F9129
:1020F0000F91FF90EF90DF90CF90BF90AF909F90A7
:102100008F907F906F905F904F903F902F900895A9
:102110008130910509F075C080914A0290914B027F
:10212000892B09F04AC00BE512E03FE4E32E32E0D0
:10213000F32E46E0842E99249A94A92CB92CD80128
:102140006D917D918D919D918D01A50194010E94CC
:102150008734F70121933193419351937F01F2E04A
:1021600007361F0761F710927D0210927E021092CF
:102170007F02109280028FE492E00E94A81982E010
:1021800090E090934D0280934C0210924B0210927B
:102190004A022A962CAD3DAD4EAD5FAD2A972093F5
:1021A0006D0230936E0240936F02509370028091E3
:1021B0004A0290914B0201978DCFEBE5F2E09E0130
:1021C0002B5C3F4F47E652E0C190D190E190F190F7
:1021D000D9018D919D919D01BF0164507109092E16
:1021E000000CAA0BBB0BC80ED91EEA1EFB1EDB019E
:1021F000CD92DD92ED92FC9213974E175F0721F777
:10220000D6CF0297A9F580914A0290914B028C3D5E
:10221000954041F520916D0230916E0240916F0220
:10222000509170022A966CAD7DAD8EAD9FAD2A9710
:102230000E945F3025E431E14BE852E40E946433B0
:1022400060937D0270937E0280937F029093800260
:10225000109201010E94420867E971E084ED93E069
:102260000E94F52A80914A0290914B02019632CF4A
:102270007E01EDE1EE0EF11C6E01F9E2CF0ED11CF4
:102280008701D8016D917D918D919D918D015D01A9
:10229000B4E0AB1AB1082DE338EF42E256E40E94F5
:1022A0006433F5016083718382839383C016D10602
:1022B00041F78091030181119FC0C0906702D090C7
:1022C0006802809102018C151D0409F00CF443C0D2
:1022D00005ED12E021EEA22E22E0B22ED8016D9182
:1022E0007D918D919D918D01F701219131914191C8
:1022F00051917F014D01F4E08F1A91080E946030E6
:10230000D4016D937D938D939C931397A016B10682
:1023100029F72091790230917A0240917B02509105
:102320007C026091E1027091E2028091E30290915F
:10233000E4020E9460306093E1027093E2028093B5
:10234000E3029093E402BFEFCB1ADB0AD09268025B
:10235000C0926702C3CE81E08093030105ED12E0D5
:1023600095EEA92E92E0B92E0D2C000CEE08FF0878
:10237000F80141905190619071908F014F01F4E00C
:102380008F1A9108C701B6010E940D329B01AC0162
:10239000C301B2010E946331D4016D937D938D938B
:1023A0009C931397A016B10619F7809169028823B0
:1023B000B1F020E030E040E057E46091E10270913C
:1023C000E2028091E3029091E4020E945F30609308
:1023D000E1027093E2028093E3029093E402109290
:1023E000690284E68093020180910003882309F446
:1023F00075CE0E94740972CE85EDC82E82E0D82E6B
:102400003701F30161917191819191913F01D60161
:102410002D913D914D915D916D015F01B4E0AB1A3D
:10242000B1080E945F30F5016083718382839383DA
:102430000615170531F78D8C9E8CAF8CB8A020E067
:1024400030E040E057ECC501B4010E94593187FFEC
:102450000CC020E030E040E857E4C501B4010E9420
:1024600060306D8F7E8F8F8F98A38D8C9E8CAF8CFC
:10247000B8A020E030E040E057E4C501B4010E947C
:102480005733181664F420E030E040E857E4C50103
:10249000B4010E945F306D8F7E8F8F8F98A3F09173
:1024A000FE022B96FFAF2B9722EF32E028963FAF2C
:1024B0002EAF28976E0131E1C30ED11C8601D701E2
:1024C0008D909D90AD90BD907D012896EEADFFADB5
:1024D000289721903190419051902896FFAFEEAF10
:1024E00028972B96FFAD2B97FF2309F459C127E8B6
:1024F00031E040E059E3C501B4010E946433A50115
:1025000094010E946433A20191010E9464330E94ED
:10251000D5310E940D321B012C0120E030E0A901D1
:10252000C501B4010E945733A501940118160CF09F
:102530005058C501B4010E946331A20191010E946B
:1025400064330E94D531D8016D937D938D939C9314
:1025500013970C5F1F4F6E147F0409F0B0CF9601E4
:10256000245F3F4FF60181919191A191B1916F014B
:102570003497811540E89407A105B10524F08FEF49
:102580009FE7A0E0B0E0813050E895075FEFA50736
:10259000B50724F481E090E8AFEFBFEF808391832B
:1025A000A283B3832C153D05E9F649885A886B88C8
:1025B0007C88C0900401D0900501E0900601F09065
:1025C0000701A701960160E070E080E89FE30E94A8
:1025D0005F304B015C01D301C201805D9A48AF4F6F
:1025E000BF4F81369A4EA105B10508F4E7C050925D
:1025F0004502409244026D897E898F89988D0E94A0
:102600000D32A50194010E9464332B013C016091BD
:10261000460270914702072E000C880B990B0E940E
:102620000D32A70196010E9464339B01AC01C301E6
:10263000B2010E9460300E94D531709347026093CE
:102640004602698D7A8D8B8D9C8D0E940D32A5017D
:1026500094010E9464334B015C01609148027091C7
:102660004902072E000C880B990B0E940D32A7011E
:1026700096010E9464339B01AC01C501B4010E9424
:1026800060300E94D531709349026093480264E43F
:1026900072E084E294E00E949E2A8AE00E944E2921
:1026A000892B11F40E94420880910003882391F144
:1026B00060914402709145024AE050E084ED93E05D
:1026C0000E94AD2B0E948A096091460270914702D8
:1026D0004AE050E084ED93E00E94AD2B0E948A090D
:1026E00060914802709149024AE050E084ED93E025
:1026F0000E94AD2B0E948A09CE018F960E949009FC
:10270000CE01C5960E94900966E871E084ED93E0E1
:102710000E94F52A4091E6025091E7026091E8029A
:102720007091E9028091EA029091EB02A091EC0293
:10273000B091ED0284179507A607B70708F0B5C05A
:102740000E94D20720917D0230917E0240917F024B
:10275000509180026091D5027091D6028091D7028B
:102760009091D8020E9460306B017C0120E030E043
:1027700040E857E40E94573318160CF04CC020E094
:1027800030E040E857E4C701B6010E945F30609333
:10279000D5027093D6028093D7029093D8024DC091
:1027A000A2019101C501B4010E9464330E94D53198
:1027B000F8016083718382839383CBCE609144025E
:1027C00070914502072E000C880B990B0E940D3268
:1027D000A70196010E9464332A966CAF7DAF8EAF3D
:1027E0009FAF2A97C301B2010E940D32A501940147
:1027F0000E9464339B01AC012A966CAD7DAD8EAD19
:102800009FAD2A970E9460300E94D5317093450297
:1028100060934402F0CE20E030E040E857ECC7017E
:10282000B6010E94593187FDF2C0C092D502D09204
:10283000D602E092D702F092D8028091E6029091FF
:10284000E702A091E802B091E9028C599F4FAF4F87
:10285000BF4F8093EA029093EB02A093EC02B093F7
:10286000ED028D8D9E8DAF8DB8A180936D029093FA
:102870006E02A0936F02B0937002809100038823D0
:10288000A1F0CE01CB960E945B196BE971E084ED5B
:1028900093E00E94D22A4BAD5CAD6DAD7EAD2AE0D7
:1028A00030E084ED93E00E94B42BC9A0DAA0EBA045
:1028B000FCA020E030E84BEB55E4C701B6010E94D4
:1028C000593187FFA1C020E030E84BEB55ECC70140
:1028D000B6010E94573318160CF096C06091790229
:1028E00070917A0280917B0290917C0260937502D4
:1028F0007093760280937702909378022D8D3E8DAF
:102900004F8D58A10E945F306B017C0120E030E0C8
:1029100040E057E40E94573318160CF081C0A7011D
:10292000960160E070E080E897E40E945F306B0100
:102930007C0110916C0220E030E0A901C701B601D2
:102940000E94573318160CF083C0112309F47BC082
:1029500080916A0290916B02019790936B02809331
:102960006A0281E080936C0200916A0210916B020E
:10297000C80117FF04C088279927801B910B809FEF
:10298000B001819F700D909F700D1124072E000CD7
:10299000880B990B0E940D3226EA3BE944E45CE384
:1029A0000E9464332091D5023091D6024091D70223
:1029B0005091D8020E9460306093D5027093D60285
:1029C0008093D7029093D802B801110F880B990B0E
:1029D0000E940D322CEA35EC47E257E30E94643343
:1029E0009B01AC0160917D0270917E0280917F021B
:1029F000909180020E94603060937D0270937E020D
:102A000080937F02909380020E94F70A67CB20E0B8
:102A100030E040E857E4C701B6010E946030B7CE0D
:102A200020E03EEF4FEF56ECC701B6010E9459314E
:102A300087FF7FCF20E030E040E857E4C701B601D0
:102A40000E94603074CF10926B0210926A0289CF9C
:102A500011110CC080916A0290916B0201969093C3
:102A60006B0280936A0210926C027ECF10926B020E
:102A700010926A02F8CFCB010C94DA34CB01642FA8
:102A80000C94E2348091320390913303891B990BAB
:102A9000089590913303809132032FEF3FEF981701
:102AA00048F4E92FF0E0EC5CFC4F208130E09F5FC0
:102AB00090933303C9010895E09133038091320369
:102AC000E81730F4F0E0EC5CFC4F808190E0089572
:102AD0008FEF9FEF08950895CF93DF931F92CDB7A7
:102AE000DEB7698320910E032223F9F020910F03B2
:102AF000203258F021E030E0FC013383228390E063
:102B000080E00F90DF91CF91089580911003E82F1E
:102B1000F0E0EF5EFC4F998190838F5F809310030C
:102B200080930F0381E090E0ECCF61E0CE0101964D
:102B30000E94C816F7CFCF92DF92EF92FF920F93C9
:102B40001F93CF93DF937C01CB018A0120910E0369
:102B5000222389F0EB016B01C40ED51ECC15DD05D7
:102B600069F06991D701ED91FC910190F081E02D20
:102B7000C7010995F3CF642F0E94C816C801DF91E1
:102B8000CF911F910F91FF90EF90DF90CF9008951C
:102B900010923303109232031092100310920F031D
:102BA0000C941316862F413208F040E264E373E080
:102BB0000E9431161092330380933203089521E06E
:102BC0000C94D21581E080930E0360933103109230
:102BD000100310920F0308950F93062F21E04091E8
:102BE0000F0361E173E0809131030E94751610922A
:102BF000100310920F0310920E030F91089561E0DD
:102C00000C94EC15E2E0F3E01382128288EE93E07C
:102C1000A0E0B0E084839583A683B7838CEB91E03A
:102C20009183808308951092C10381E08093BF0354
:102C30001092BE0361E082E00E94202961E083E0FF
:102C40000E942029E9EBF0E080818E7F80838081E3
:102C50008D7F808388E48093B80085E48093BC00F6
:102C60000895413208F03FC09091C1039111FCCF0B
:102C700091E09093C1032093BF032FEF209354035F
:102C800010929903240F209398039093C00390917E
:102C9000C003880F892B8093C0038091BE038130CD
:102CA000E9F41092BE038091C0038093BB0085ECD1
:102CB0008093BC008091C1038130E1F3809199033E
:102CC000841710F440919903AAE9B3E0962FFB0111
:102CD0008E2F891B841720F0842F089585EEE8CF6E
:102CE0008D918193F5CF40E0F7CF0F93413208F0FB
:102CF00047C09091C1039111FCCF92E09093C10322
:102D00000093BF039FEF9093540310929903409355
:102D10009803362FAAE9B3E0FB019E2F931B94176B
:102D200050F11092C0039091C003880F892B8093BB
:102D3000C0038091BE03813009F51092BE038091DB
:102D4000C0038093BB0085EC8093BC00222321F05C
:102D50008091C1038230D1F3809154038F3F91F071
:102D600080915403803281F080915403803371F05C
:102D700084E00F91089591919D93CFCF85EEE4CF9C
:102D800081E0F7CF80E0F5CF82E0F3CF83E0F1CFB1
:102D9000613298F42091C103243089F46093760362
:102DA000282FA8E7B3E0FC018E2F821B861710F0B6
:102DB00080E0089581918D93F7CF81E0089582E0BE
:102DC000089585ED8093BC008091BC0084FDFCCF0C
:102DD0001092C103089585EC8093BC001092C1034A
:102DE00008951F920F920FB60F9211242F933F93C5
:102DF0004F935F936F937F938F939F93AF93BF9303
:102E0000EF93FF938091B900887F803609F44CC01E
:102E100008F03FC0883209F4A8C018F5803109F4E1
:102E20009CC0B8F4882309F4F9C0883009F495C02F
:102E3000FF91EF91BF91AF919F918F917F916F9192
:102E40005F914F913F912F910F900FBE0F901F9068
:102E50001895883109F489C0803251F78093540362
:102E600015C0803409F49EC048F48033B9F3883328
:102E7000F9F6809354030E94EB16DACF803509F4FB
:102E800085C0883509F496C0883491F60E94E11611
:102E9000CFCF883909F48CC038F5883729F050F441
:102EA000883611F0803721F683E08093C1031092B9
:102EB000550357C0883809F47BC0803919F0803831
:102EC00009F0B6CF80915503803208F071C0E091CF
:102ED000550381E08E0F809355038091BB00F0E095
:102EE000EA5AFC4F80833DC0803B39F0E0F4803AE1
:102EF00009F479C0883A09F09BCF84E08093C1033C
:102F00001092770310927603E091BC03F091BD0319
:102F100009958091760381110FC081E0809376033B
:102F20001092780309C0803C09F476C0883C09F40B
:102F300073C0883B09F07CCFE091770381E08E0F6E
:102F400080937703F0E0E858FC4F80818093BB00CA
:102F5000909177038091760329C08091C00380937C
:102F6000BB0085EC8093BC0063CF90919903809166
:102F70009803981758F5E091990381E08E0F80939C
:102F80009903F0E0E656FC4F8081E9CFE091990388
:102F900081E08E0F809399038091BB00F0E0E656AC
:102FA000FC4F808390919903809198039817C8F201
:102FB00085E8D8CFE091990381E08E0F8093990343
:102FC0008091BB00F0E0E656FC4F80838091BF0308
:102FD00081115CCF81E08093BE0384EA8093BC00C2
:102FE0001092C10325CF80915503803230F4E091D7
:102FF0005503F0E0EA5AFC4F10820E94E1166091FE
:10300000550370E0E091BA03F091BB0386E593E0CD
:103010000995109255032FCF85ECE0CF1092540301
:1030200035CFFF920F931F93CF93DF93C62F042FBB
:10303000F22E132F682F82E093E00E94E2156C2F8E
:1030400082E093E00E946C15CF2DD12F0C0F1D2F25
:10305000111DC017D10731F0699182E093E00E9401
:103060006C15F7CF82E093E00E94FF1591E081118B
:1030700090E0892FDF91CF911F910F91FF900895DC
:103080002F923F924F925F926F927F928F929F9278
:10309000AF92BF92CF92DF92EF92FF920F931F9366
:1030A000CF93DF9300D01F92CDB7DEB7E82E6983B0
:1030B0004B8369010E94E9274B015C01F12C1A82C4
:1030C0002B81222E312C2801712C612C8B81F8163A
:1030D00008F048C06E2D82E093E00E94E2156981FD
:1030E00082E093E00E946C1582E093E00E94FF155D
:1030F0006E2D82E093E00E94E215A1014F19510963
:103100004132510514F040E250E06E2D82E093E030
:103110000E94DF1582E093E00E944215892BE1F0C6
:103120000115110571F482E093E00E944915F60142
:103130009A81E90FF11D97FDFA9580839F5F9A832D
:10314000E9CF0E94E927681979098A099B09641562
:1031500075058605970538F38B81813208F080E28A
:10316000F80EB4CF01151105C1F00E94E9276819C6
:1031700079098A099B0930E020E06017710782070E
:10318000930758F02A81822F220F990B2B81281741
:10319000190619F014F08FEF8A838A810F900F902F
:1031A0000F90DF91CF911F910F91FF90EF90DF90E3
:1031B000CF90BF90AF909F908F907F906F905F90D7
:1031C0004F903F902F900895CF93DF931F92CDB7EC
:1031D000DEB7909127019923F1F0882341F182E035
:1031E0008983A0910A01B0910B01E0910C01F0914B
:1031F0000D019E012F5F3F4F41E051966C91808100
:103200000E9481270097A9F42981209316010F902D
:10321000DF91CF91089590911001992351F0882367
:1032200031F080911601811107C081E0D9CF198258
:10323000D8CF8FEF9FEFEBCF90E080E0E8CFCF9338
:10324000DF931F92CDB7DEB7BC018091130190913F
:1032500014018617970728F48FEF0F90DF91CF9115
:10326000089565367105C0F70E943D346150698349
:10327000A0910A01B0910B01E0910C01F0910D01B8
:103280009E012F5F3F4F41E094966C9180810E9498
:103290008127892B09F7698170E06F5F7F4F8091EB
:1032A0001301909114010E943D3470932C0160939E
:1032B0002B0180E0D2CF0F931F93CF93DF9300D0E9
:1032C000CDB7DEB720911001211108C08FEF0F900C
:1032D0000F90DF91CF911F910F9108958C01A091D4
:1032E0000A01B0910B01E0910C01F0910D019E01DA
:1032F0002F5F3F4F42E050966C9180810E948A2759
:10330000892B21F769817A81762767277627072E0F
:10331000000C880B990B0E940D3220E030E04AEA45
:1033200053E40E94633128EB3EE142E152E40E9403
:10333000603020E030E040E857E40E9464330E94AF
:10334000D531F801608371838283938380E0BFCF9E
:10335000EF92FF921F93CF93DF9300D0CDB7DEB7EC
:103360007C0113E1F70181919191A191B1917F01CC
:1033700099838A83E0910C01F0910D019E012F5FEA
:103380003F4F42E0612F80810E9481271E5F1931EB
:1033900049F70F900F90DF91CF911F91FF90EF9021
:1033A0000895CF93DF931F92CDB7DEB780911001C0
:1033B0008823A1F01982A0910A01B0910B01E0913C
:1033C0000C01F0910D019E012F5F3F4F41E051969E
:1033D0006C9180810E948127892B11F08FEF94C01E
:1033E000A0910A01B0910B01E0910C01F0910D0147
:1033F0009E012F5F3F4F41E015966C9180810E94A6
:103400008127892B59F7A0910A01B0910B01E09116
:103410000C01F0910D019E012F5F3F4F41E014968A
:103420006C9180810E948127892BC1F6E0910A016D
:10343000F0910B016481E0910C01F0910D0180810C
:1034400090912701992309F465C09CE099839E011E
:103450002F5F3F4F41E00E948127892B09F0BECFAB
:1034600062E370E080E090E00E941A2880EC89839B
:103470008091100180FF02C080EE8983A0910A0133
:10348000B0910B01E0910C01F0910D019E012F5FB5
:103490003F4F41E014966C9180810E948127892BD7
:1034A00009F09CCF80911601882391F182E08983F5
:1034B000A0910A01B0910B01E0910C01F0910D0176
:1034C0009E012F5F3F4F41E051966C9180810E9499
:1034D0008127892B09F082CF1982A0910A01B0912E
:1034E0000B01E0910C01F0910D019E012F5F3F4F08
:1034F00041E015966C9180810E94812721E0892B03
:1035000009F420E0822F81950F90DF91CF910895EB
:103510001982CECF94E099839E012F5F3F4F41E007
:103520000E948127892B09F059CF809117018111C1
:1035300004C08091100180FD41C080E48983A09186
:103540000A01B0910B01E0910C01F0910D019E0177
:103550002F5F3F4F41E014966C9180810E9481273C
:10356000892B09F03BCF62E370E080E090E00E949D
:103570001A2880911601882319F181E08983A0918E
:103580000A01B0910B01E0910C01F0910D019E0137
:103590002F5F3F4F41E051966C9180810E948127BF
:1035A000892B09F01BCFA0910A01B0910B01E0918A
:1035B0000C01F0910D0125E131E09ACF80E6BECFFC
:1035C0001982DDCFCF93DF931F92CDB7DEB7209165
:1035D0001001222369F1843F21E0920769F1883EBE
:1035E00023E0920761F18A3F910559F5198289819B
:1035F00086958695869590910E019817C9F0A091B1
:103600000A01B0910B01E0910C01F0910D019E01B6
:103610002F5F3F4F41E016966C9180810E94812779
:10362000892B31F4898186958695869580930E0144
:103630000F90DF91CF91089588E08983D8CF80E102
:10364000FCCF88E1FACFFC0180910F01813079F045
:1036500020F0823071F080E101C082E080838091AF
:103660001801882319F08081880F8083089584E0F1
:10367000F5CF88E0F3CFCF93DF931F92CDB7DEB7BE
:1036800090911001992341F1843051F1883059F122
:10369000823059F519828981869586958695909113
:1036A0000F019817C9F0A0910A01B0910B01E091A8
:1036B0000C01F0910D019E012F5F3F4F41E01796E5
:1036C0006C9180810E948127892B31F489818695B4
:1036D0008695869580930F010F90DF91CF91089585
:1036E00088E08983D8CF80E1FCCF88E1FACFCF93FF
:1036F000DF931F92CDB7DEB720911001222301F195
:103700008C3B910508F181E08983909111018981B9
:103710009817B1F0A0910A01B0910B01E0910C0152
:10372000F0910D019E012F5F3F4F41E012966C9189
:1037300080810E948127892B19F48981809311014E
:103740000F90DF91CF9108958236910510F082E0BD
:10375000DBCF8A32910510F083E0D6CF843191051A
:1037600010F084E0D1CF0A9710F085E0CDCF86E04D
:10377000CBCF009711F00C941F198FEF0895CF93C2
:10378000DF939091270191111BC090911001992313
:10379000B9F0C82FCE7FD09115019C2390931501CD
:1037A000C11104C080911901882369F081E00E9451
:1037B000E418CC2329F00E94D1198111D09315016E
:1037C000DF91CF91089580E0DF91CF910C94E418C0
:1037D000AF92BF92CF92DF92EF92FF920F931F931F
:1037E000CF93DF9300D0CDB7DEB7209127012223FE
:1037F00009F471C020911001222309F46EC06A01FE
:103800005B018C01A0910A01B0910B01E0910C01C8
:10381000F0910D019E012F5F3F4F42E01C966C918D
:1038200080810E948A27892B71F082E00F900F908F
:10383000DF91CF911F910F91FF90EF90DF90CF908C
:10384000BF90AF900895E980FA80FE24EF24FE2413
:10385000E016F10620F4F601108285E0E7CFE09152
:103860000C01F0910D0181819281969587958E15BD
:103870009F05B0F4A0910A01B0910B019E012F5F4A
:103880003F4F41E053966C9180810E948A27892B9B
:1038900061F6898184FF04C00E94D11983E0C6CFFC
:1038A000A0910A01B0910B01E0910C01F0910D0182
:1038B0009501402F1D966C9180810E948A27892B4B
:1038C00009F0B3CFC701B8010E943D346150F60141
:1038D000608380E0ABCF81E0A9CF84E0A7CF1F93C6
:1038E000CF93DF931F92CDB7DEB790911701981752
:1038F00009F45DC0182FE0910A01F0910B01648179
:10390000E0910C01F0910D0180819E012F5F3F4FEE
:1039100041E0112309F44DC00E948A27892B31F020
:103920008FEF0F90DF91CF911F91089589818F7D47
:103930008983A0910A01B0910B01E0910C01F091F3
:103940000D019E012F5F3F4F41E014966C918081E5
:103950000E948127892B21F763E070E080E090E0EE
:103960000E941A2882E0898380912501882311F022
:1039700082E8898380912601882319F089818063F8
:103980008983A0910A01B0910B01E0910C01F091A3
:103990000D019E012F5F3F4F41E057966C91808152
:1039A0000E948127892B09F0BBCF1093170180E07B
:1039B000B8CF0E948A27892B09F0B2CF99818091D4
:1039C000100180FF22C090629983A0910A01B091FA
:1039D0000B01E0910C01F0910D019E012F5F3F4F13
:1039E00041E014966C9180810E948127892B09F017
:1039F00097CF63E070E080E090E00E941A28809109
:103A00002501882321F080E8B4CF9F7DDDCF198286
:103A1000B1CF1F93CF93DF931F92CDB7DEB79091B5
:103A20002601981741F1882341F190E39983909101
:103A30001701992319F0998192609983909125013A
:103A4000992319F0998190689983182FA0910A0100
:103A5000B0910B01E0910C01F0910D019E012F5FDF
:103A60003F4F41E057966C9180810E948127892BBE
:103A700031F41093260180E003C01982D8CF8FEF74
:103A80000F90DF91CF911F9108950F931F93CF93C4
:103A9000DF9300D0CDB7DEB78932910510F08FEFFC
:103AA0001FC08C01892B19F580E00E94091D198225
:103AB00087E08A83A0910A01B0910B01E0910C018B
:103AC000F0910D019E012F5F3F4F42E055966C91A2
:103AD00080810E948127892B11F71092190180E0C3
:103AE0000F900F90DF91CF911F910F91089581E07A
:103AF0000E94091D80E289830130110561F51A8257
:103B000085E090E00E94771B8A8120E4829FC001BB
:103B1000112487608A83A0910A01B0910B01E09182
:103B20000C01F0910D019E012F5F3F4F42E0559631
:103B30006C9180810E948127892B09F0B0CF88E0A9
:103B4000809310011092120181E08093190180E0AE
:103B50000E94BF1BC4CF0630110518F481E08A8390
:103B6000CFCF0531110528F482E08A838AE090E006
:103B7000C9CF83E08A8384E190E0C4CF0F931F9381
:103B8000CF93DF931F92CDB7DEB720911001222390
:103B900081F02091270121110CC08C018091190125
:103BA000882389F0C8010197889748F4C8010E94CA
:103BB000451D0F90DF91CF911F910F91089590E0D7
:103BC00080E00E94451DB801093E134010F068EEE8
:103BD00073E06430710510F464E070E008EE13E007
:103BE000C8010E943D3461506983A0910A01B091DF
:103BF0000B01E0910C01F0910D019E012F5F3F4FF1
:103C000041E011966C9180810E948127892B89F671
:103C1000698170E06F5F7F4FC8010E9451347093DB
:103C200014016093130180912B0190912C01853632
:103C3000910510F084E690E00E94B91B8091130179
:103C400090911401969587950E94771BB2CF1F9390
:103C5000CF93DF9300D0CDB7DEB7182F807719F060
:103C600081E08A8303C01123E1F01A82A0910A0146
:103C7000B0910B01E0910C01F0910D019E012E5FBE
:103C80003F4F41E055966C9180810E948127892B9E
:103C900051F0109210010F900F90DF91CF911F9172
:103CA000089580E4DECF8A818F7B8093120116FF16
:103CB00075C01A8215FD03C08A8182608A8314FD53
:103CC00003C08A8181608A8313FD03C08A8188636F
:103CD0008A83A0910A01B0910B01E0910C01F0914F
:103CE0000D019E012E5F3F4F41E056966C91808101
:103CF0000E948127892B69F6812F877F19F080E048
:103D00000E94091DA0910A01B0910B01E0910C01E4
:103D1000F0910D019E012F5F3F4F41E014966C9191
:103D200080810E948A27898110FF3BC091E09A839D
:103D3000806289838981909127019923A9F1806804
:103D40008983A0910A01B0910B01E0910C01F091DF
:103D50000D019E012E5F3F4F41E096966C91808150
:103D60000E948127A0910A01B0910B01E0910C0102
:103D7000F0910D019E012F5F3F4F41E014966C9131
:103D800080810E948127109310011092190162E333
:103D900070E080E090E00E941A287DCF84E08A8362
:103DA00089CF1A828F7DC5CF8F77CACF1F93CF93CC
:103DB000DF93CDB7DEB72A970FB6F894DEBF0FBEFC
:103DC000CDBF1FEFDC011C9380E88983A0910A011D
:103DD000B0910B01E0910C01F0910D019E012F5F5C
:103DE0003F4F41E055966C9180810E948127892B3D
:103DF00009F079C064E670E080E090E00E941A2843
:103E00001982A0910A01B0910B01E0910C01F0918F
:103E10000D019E012F5F3F4F41E055966C918081CF
:103E20000E948127892B09F05EC010931001109326
:103E30000E0110930F01109311018FEF9FEF9093DC
:103E4000140180931301109315011093170190939F
:103E50002C0180932B0181E0809312018093250136
:103E60001092260110921A0110921901EBE1F1E073
:103E70008AE0DF011D928A95E9F7109227011092DE
:103E8000280110922A011092290180ED97E00E94EA
:103E9000E21A82E00E943B1B84E690E00E94BE1D75
:103EA0008AE290E00E94771B80E00E94BF1B81E0C5
:103EB0000E946F1C1CE09E01295F3F4F41E060E0C3
:103EC000812F0E948A27892B19F48F818834A9F0C9
:103ED0001F5F103181F78AE090E00E941F19811165
:103EE00002C00E94271E2A960FB6F894DEBF0FBEAE
:103EF000CDBFDF91CF911F91089510932D011F82A7
:103F00009E01295F3F4F41E06AE0812F0E94812797
:103F1000892B09F761E070E080E090E00E941A28A8
:103F20008FE08F839E01295F3F4F41E06AE08091DF
:103F30002D010E948127892B71F661E070E080E0FD
:103F400090E00E941A289E01295F3F4F43E060E104
:103F500080912D010E948A27892B09F0BCCF8F8187
:103F600090E080589F4F90932F0180932E01888579
:103F700090E080589F4F9093310180933001898564
:103F800090E080589F4F90933301809332011F82BD
:103F90009E01295F3F4F41E06AE080912D010E9420
:103FA0008127892B09F097CF61E070E080E090E0F5
:103FB0000E941A2880E00E946F1C80E48F83A091E9
:103FC0000A01B0910B01E0910C01F0910D019E01ED
:103FD000295F3F4F41E05A966C9180810E94812772
:103FE000892B09F078CF80912D0180688F83A09173
:103FF0000A01B0910B01E0910C01F0910D019E01BD
:10400000295F3F4F41E05E966C9180810E9481273D
:10401000892B09F060CF82E08F83A0910A01B091D3
:104020000B01E0910C01F0910D019E01295F3F4FC2
:1040300041E05F966C9180810E948127892B09F075
:104040004ACF88E88F83A0910A01B0910B01E091DB
:104050000C01F0910D019E01295F3F4F41E09096C8
:104060006C9180810E948127892B09F034CF809147
:104070002D018F83A0910A01B0910B01E0910C01F9
:10408000F0910D019E01295F3F4F41E091966C91A7
:1040900080810E948127892B09F01DCF8AE08F83C0
:1040A000A0910A01B0910B01E0910C01F0910D017A
:1040B0009E01295F3F4F41E092966C9180810E9462
:1040C0008127892B09F007CF81E88F83A0910A010E
:1040D000B0910B01E0910C01F0910D019E01295F5F
:1040E0003F4F41E093966C9180810E948127892BFC
:1040F00009F0F1CE81E08F83A0910A01B0910B010C
:10410000E0910C01F0910D019E01295F3F4F41E0CC
:1041100096966C9180810E948127892B09F0DBCED5
:1041200083E08F83A0910A01B0910B01E0910C0113
:10413000F0910D019E01295F3F4F41E097966C91F0
:1041400080810E948127C7CEEF92FF920F931F9329
:10415000CF93DF9300D0CDB7DEB74115510591F174
:1041600020911001222371F199838A83E0910C013F
:10417000F0910D01860F972F911D2085318528170D
:10418000390700F17A018B01A0910A01B0910B016E
:104190009E012F5F3F4F42E05B966C9180810E94B1
:1041A0008127892B79F4A0910A01B0910B01E0914C
:1041B0000C01F0910D019701402F58966C91808170
:1041C0000E9481270F900F90DF91CF911F910F9147
:1041D000FF90EF900895EF92FF920F931F93CF936C
:1041E000DF9300D0CDB7DEB74115510591F1209195
:1041F0001001222371F199838A83E0910C01F091DF
:104200000D01860F972F911D2085318528173907BD
:1042100000F17A018B01A0910A01B0910B019E017E
:104220002F5F3F4F42E05B966C9180810E94812717
:10423000892B79F4A0910A01B0910B01E0910C0156
:10424000F0910D019701402F58966C9180810E944A
:104250008A270F900F90DF91CF911F910F91FF90C0
:10426000EF9008954F925F926F927F928F929F92FC
:10427000AF92BF92CF92DF92EF92FF920F931F9374
:10428000CF93DF93CDB7DEB7A2970FB6F894DEBF1A
:104290000FBECDBFE0912801E11129C06115710564
:1042A00031F14901652E742E5B016C01F12CE12C7A
:1042B000EC14FD0498F169A27AA2A0910A01B091D0
:1042C0000B01E0910C01F0910D019E012F5D3F4F1C
:1042D00042E05D966C9180810E948127892B39F4A0
:1042E00081E08093280190922A0180922901A29670
:1042F0000FB6F894DEBF0FBECDBFDF91CF911F91F7
:104300000F91FF90EF90DF90CF90BF90AF909F9074
:104310008F907F906F905F904F900895C6018E1997
:104320009F098131910510F080E190E0DE01119646
:1043300010E000E02D0195012E0D3F1DF901E00F69
:10434000F11FE491ED930F5F1F4F08171907B1F7A5
:10435000A201B801C7010E94A420AE014F5E5F4FC9
:10436000B801C7010E94EB20A801BE016F5E7F4F1C
:10437000C2010E94C634892B09F0B9CFE00EF11EAC
:1043800097CFCF93DF931F92CDB7DEB790912701E0
:10439000981731F1882341F180912801882301F198
:1043A00080E00E94E41880E00E946F1C8091290147
:1043B00090912A010E94BE1D1982E0910C01F0919A
:1043C0000D019E012F5F3F4F41E063E280810E941B
:1043D000812781E0809327010E94E4180E94D1196F
:1043E0000F90DF91CF91089580E00E94E4188091B2
:1043F00015018983E0910C01F0910D019E012F5F61
:104400003F4F41E063E280810E94812710922701A3
:10441000E5CF0F931F93CF93DF93CDB7DEB72997E7
:104420000FB6F894DEBF0FBECDBF2091100120FF64
:1044300035C08C01A0910A01B0910B01E0910C01F3
:10444000F0910D019E012F5F3F4F48E098966C91CF
:1044500080810E948A27892B19F5898180FF22C0DB
:10446000888587FD21C086FD1FC08A819B81F80158
:10447000918380838C819D81938382838E819F81B0
:104480009583848380E029960FB6F894DEBF0FBE33
:10449000CDBFDF91CF911F910F91089581E0F3CFB0
:1044A00084E0F1CF85E0EFCF86E0EDCFCF93DF93CF
:1044B000CDB7DEB729970FB6F894DEBF0FBECDBFDC
:1044C00089E0E0E4F1E0DE01119601900D928A9519
:1044D000E1F7AE014F5F5F4F69E070E088EB94E079
:1044E0000E94A42029960FB6F894DEBF0FBECDBF60
:1044F000DF91CF91089528EC30E040E054E064E390
:1045000071E086EF9BE00C9432216F927F928F9244
:10451000CF92DF92EF920F931F93CF93DF93CDB79C
:10452000DEB72C970FB6F894DEBF0FBECDBF8C015F
:104530008091490190914A01A0914B018C839D8308
:10454000AE8380914C0190914D01A0914E018983E1
:104550009A83AB8360904F0170905001809051011D
:10456000C0905201D0905301E09054019801237003
:104570003327E4E0F0E0EC0FFD1FE20FF31F808132
:104580008A87C80143E0969587954A95E1F783703D
:104590009927E4E0F0E0EC0FFD1FE80FF91F4081E0
:1045A0004B87F80156E0F695E7955A95E1F7E370E9
:1045B000FF27A4E0B0E0AC0FBD1FAE0FBF1F4C91B2
:1045C0004C8741E050E04C0F5D1F240F351FD9018F
:1045D0002C912F83840F951FDC018C918887E40F29
:1045E000F51F80818987AE01465F5F4F63E070E011
:1045F00086E294E00E94A420AE01495F5F4F63E031
:1046000070E08AE294E00E94A4206A867B868C8611
:10461000CF82D886E98602FF04C087E38A8787E2D3
:104620008F8305FF04C087E58B8787E4888710FFA9
:1046300004C087E78C8787E68987AE01465F5F4FB6
:1046400063E070E080E494E00E94A420AE01495F42
:104650005F4F63E070E081E394E00E94A420109338
:10466000C5030093C4032C960FB6F894DEBF0FBEAB
:10467000CDBFDF91CF911F910F91EF90DF90CF9041
:104680008F907F906F9008950F931F93CF93DF9338
:10469000CDB7DEB764970FB6F894DEBF0FBECDBFBF
:1046A0002CE0E5E5F1E0DE01119601900D922A95EE
:1046B000E1F7893C910500F58C011D8688EC90E0BE
:1046C000B8010E943D34615071096E87AE01435FAD
:1046D0005F4F62E070E086E192E00E94A420AE01AC
:1046E0004F5F5F4F6CE070E081EC9AE00E94A42085
:1046F0001093C9030093C80364960FB6F894DEBF05
:104700000FBECDBFDF91CF911F910F9108958F9272
:104710009F92AF92BF92FF920F931F93CF93DF931D
:1047200000D000D01F92CDB7DEB7982F9770E1F080
:10473000613496E07907C0F4F82E90E080E00E94A2
:104740000B3220E030E048E453E40E9463314B0137
:104750005C01CE0105960E94231B8D81843009F4F3
:1047600081C020F48230C1F08FEF6DC0883009F431
:104770008AC08031C9F720E030E040E055E4C5014F
:10478000B4010E9464330E94DC31162F072F20E011
:1047900030E040EC54E410C020E030E040E856E463
:1047A000C501B4010E9464330E94DC31162F072F2B
:1047B00020E030E040E456E4C501B4010E946433D7
:1047C0000E94DC3109831A837B836C83F0FE12C064
:1047D000AE014F5F5F4F62E070E084ED91E00E94B8
:1047E000A420AE014D5F5F4F62E070E084E291E093
:1047F0000E94A420F1FE12C0AE014F5F5F4F62E045
:1048000070E088ED91E00E94A420AE014D5F5F4F03
:1048100062E070E088E291E00E94A420F2FE12C003
:10482000AE014F5F5F4F62E070E08CED91E00E945F
:10483000A420AE014D5F5F4F62E070E08CE291E03A
:104840000E94A42080E00F900F900F900F900F9087
:10485000DF91CF911F910F91FF90BF90AF909F90EC
:104860008F90089520E030E040E056E4C501B401A7
:104870000E9464330E94DC31162F072F20E030E0C5
:1048800040EC55E499CF20E030E040E855E4C50124
:10489000B4010E9464330E94DC31162F072F20E000
:1048A00030E040E455E488CFCF93DF931F92CDB73B
:1048B000DEB780FD19C0198281FF03C099819C6019
:1048C000998382FF03C0898183608983AE014F5F32
:1048D0005F4F61E070E088E491E00E94A42080E0F6
:1048E0000F90DF91CF91089590E39983E5CFCF9317
:1048F000DF931F92CDB7DEB7882399F0853008F09B
:1049000084E081508983AE014F5F5F4F61E070E0CA
:104910008FE491E00E94A42080E00F90DF91CF917E
:10492000089581E0EECFCF93DF9300D0CDB7DEB70F
:1049300065E070E00E943D3479836A83AE014F5F89
:104940005F4F62E070E08EED91E00E94A42080E075
:104950000F900F90DF91CF910895CF93DF9300D008
:10496000CDB7DEB765E070E00E943D3479836A839D
:10497000AE014F5F5F4F62E070E08AED91E00E9410
:10498000A42080E00F900F90DF91CF9108950F93B6
:104990001F93CF93DF9300D000D0CDB7DEB78A014D
:1049A00028EE33E040E050E00E948734D8010E94B6
:1049B000AC3499838A837B836C83AE014F5F5F4FF6
:1049C00064E070E08CE591E00E94A42080E00F900C
:1049D0000F900F900F90DF91CF911F910F9108953D
:1049E000CF93DF9300D0CDB7DEB765E070E00E94D3
:1049F0003D3479836A83AE014F5F5F4F62E070E0C0
:104A00008AE591E00E94A42080E00F900F90DF9152
:104A1000CF910895CF93DF9300D0CDB7DEB765E097
:104A200070E00E943D3479836A83AE014F5F5F4F2F
:104A300062E070E088E591E00E94A42080E00F90A1
:104A40000F90DF91CF910895CF93DF93CDB7DEB76D
:104A500029970FB6F894DEBF0FBECDBF882359F05B
:104A60000E94562229960FB6F894DEBF0FBECDBF26
:104A7000DF91CF91089589E0E1E6F1E0DE01119642
:104A800001900D928A95E1F7AE014F5F5F4F69E0AB
:104A900070E088EB94E00E94A420E4CFCF93DF93F2
:104AA00000D000D0CDB7DEB78823D1F080EC898369
:104AB00082EC8A8384EC8B8386EC8C83AE014F5F1F
:104AC0005F4F64E070E088E99AE00E94A4200E94B1
:104AD000D1190F900F900F900F90DF91CF91089503
:104AE00044E050E06BE870E0CE0101960E94D334C0
:104AF000E5CFCF93DF9300D000D0CDB7DEB78823CA
:104B0000D1F080E2898388E28A8380E38B8388E323
:104B10008C83AE014F5F5F4F64E070E08EE99AE0F6
:104B20000E94A4200E94D1190F900F900F900F9017
:104B3000DF91CF91089544E050E063EA70E0CE0148
:104B400001960E94D334E5CFAF92BF92CF92DF920D
:104B5000EF92FF920F931F93CF93DF93CDB7DEB702
:104B60002A970FB6F894DEBF0FBECDBF8C0182E04E
:104B700089838AEC8A8383EE8B8389E08C83AE0100
:104B80004F5F5F4F64E070E088E690E00E94A420F1
:104B900083EA8983580190E4A922BB2406FFCBC095
:104BA00080EC8A8388EC8B8382EC8C83680180E8BC
:104BB000C82281E0D822C114D10409F4BFC084EC1A
:104BC0008D838CEC8E8386EC8F8383EA888789873C
:104BD0008A87AE014F5F5F4F6AE070E087EA9AE034
:104BE0000E94A420780193E0E922FF2480E2E114EE
:104BF000F10409F488ED8983AE014F5F5F4F61E0F6
:104C000070E086EB9AE00E94A42005FF9BC00E9402
:104C10005622C114D10499F010FF98C082EB898309
:104C20008BE88A8386EB8B838BE98C83AE014F5FA5
:104C30005F4F64E070E082EA9AE00E94A42000FFE7
:104C40008DC088EF8983AE014F5F5F4F61E070E0F8
:104C500080EB98E00E94A4206AEF70E087E00E9459
:104C6000872387E00E94542481E00E94772484E611
:104C700090E00E94932484EF91E00E94AD2448ECE0
:104C800050E069E073EE8AEC92E00E94C72488E26B
:104C900090E00E94F0248AE090E00E940A2589EDCD
:104CA00001FF88ED8983AE014F5F5F4F61E070E0E7
:104CB0008DE397E00E94A42081E002FF80E00E9443
:104CC0004E2581E004FF80E00E947925C8018860BC
:104CD0009093C7038093C6030E94D119AB2809F0B3
:104CE00049C01092CA03CD2829F08091CA038A5F77
:104CF0008093CA0304711127012B29F08091CA0304
:104D0000805F8093CA03EF2829F08091CA038C5FEB
:104D10008093CA032A960FB6F894DEBF0FBECDBFAC
:104D2000DF91CF911F910F91FF90EF90DF90CF9087
:104D3000BF90AF9008958A838B8337CF83EA8D83AA
:104D40008E8342CF80E00E94242563CF80EB89834D
:104D500080E88A8384EB8B8380E967CF88ED898341
:104D6000AE014F5F5F4F61E070E080EB98E00E9422
:104D7000A42095CF86E08093CA03B5CF6F927F922F
:104D80008F929F92AF92BF92CF92DF92EF92FF925B
:104D90000F931F93CF93DF93CDB7DEB7A0970FB6D6
:104DA000F894DEBF0FBECDBF5C014B013A01690133
:104DB000A701F801118210828091CA03BE016F5FC2
:104DC0007F4F90E00E94E81B811186C02091C603AE
:104DD0003091C703A90144715527452BD9F0FE0135
:104DE0003196D301CE0141967080418150E070E050
:104DF00060E0BA01552744277729738047297280DC
:104E000057294D935D936D937D9334968E179F072D
:104E100059F780E126FF1DC0A1E0B0E0AC0FBD1F37
:104E2000A80FB11DF401B4016A5F7F4F4C91119638
:104E30009C911197542F492F4193519312966E17BD
:104E40007F07A1F78A5FF801408151814860518353
:104E50004083A90140785170452BE9F0A1E0B0E012
:104E6000AC0FBD1FA80FB11DF501B5016A5F7F4FE3
:104E70004C9111969C911197542F492F4193519326
:104E800012966E177F07A1F78A5FF8014081518162
:104E900040675183408323703327232BC1F0E1E027
:104EA000F0E0EC0FFD1FE80FF11D818180FF0FC0C6
:104EB0006381862F869586958695877067706F5F6C
:104EC000E091C203F091C303309709F00995F60110
:104ED0001082118212821382A0960FB6F894DEBF60
:104EE0000FBECDBFDF91CF911F910F91FF90EF903B
:104EF000DF90CF90BF90AF909F908F907F906F90FA
:104F000008950E94111891E0892790E0919581956C
:104F1000910908950F931F930091080110910901C1
:104F20000E94401821E030E0882311F030E020E0BA
:104F300088279927821B930B1F910F9108951F9229
:104F40000F920FB60F9211242F933F938F939F933D
:104F5000AF93BF938091CC039091CD03A091CE03EA
:104F6000B091CF033091CB0323E0230F2D3758F5B9
:104F70000196A11DB11D2093CB038093CC03909388
:104F8000CD03A093CE03B093CF038091D003909133
:104F9000D103A091D203B091D3030196A11DB11DFD
:104FA0008093D0039093D103A093D203B093D30303
:104FB000BF91AF919F918F913F912F910F900FBE15
:104FC0000F901F90189526E8230F0296A11DB11D82
:104FD000D2CF2FB7F8946091CC037091CD0380911C
:104FE000CE039091CF032FBF08953FB7F8948091DF
:104FF000D0039091D103A091D203B091D30326B5F1
:10500000A89B05C02F3F19F00196A11DB11D3FBF00
:10501000BA2FA92F982F8827BC01CD01620F711DCF
:10502000811D911D42E0660F771F881F991F4A95C9
:10503000D1F70895CF92DF92EF92FF92CF93DF9353
:105040006B017C010E94F527EB01C114D104E1043E
:10505000F10439F4DF91CF91FF90EF90DF90CF9082
:1050600008950E945E300E94F5276C1B7D0B683E00
:10507000734058F381E0C81AD108E108F108C8511B
:10508000DC4FE3CF789484B5826084BD84B58160C1
:1050900084BD85B5826085BD85B5816085BDEEE640
:1050A000F0E0808181608083E1E8F0E0108280811F
:1050B00082608083808181608083E0E8F0E080818D
:1050C00081608083E1E9F0E080818260808380817B
:1050D00081608083E0E9F0E0808181608083E1ECA1
:1050E000F0E0808184608083808182608083808121
:1050F00081608083E3ECF0E0808181608083E0EC7C
:10510000F0E0808182608083E2ECF0E08081816069
:105110008083EAE7F0E08081846080838081826020
:10512000808380818160808380818068808308950E
:1051300081508F3008F047C0E82FF0E0EE55F74D72
:105140000C94A634BF28C328B128B728BB28E3286D
:10515000E328E328C628CC28D028D428DA28E32856
:10516000DE28809180008F77809380000895809161
:1051700080008F7DF9CF80918000877FF5CF84B547
:105180008F7784BD089584B58F7DFBCF809190008B
:105190008F77809390000895809190008F7DF9CF54
:1051A00080919000877FF5CF8091C0008F778093AA
:1051B000C00008958091C0008F7DF9CF8091C2001A
:1051C000877F8093C2000895CF93DF9390E0FC0126
:1051D000E85BF24F24918A59924FFC018491882315
:1051E000C9F090E0880F991FFC01E056F24FA5919D
:1051F000B491FC01EE56F24FC591D49161110DC0EE
:105200009FB7F8948C91209582238C9388812823D2
:1052100028839FBFDF91CF910895623051F49FB7EB
:10522000F8943C91822F809583238C93E8812E2BD8
:10523000EFCF8FB7F894EC912E2B2C938FBFEACF42
:105240001F93CF93DF93282F30E0F901E65DF24FF3
:105250008491F901E85BF24FD491F901EA59F24FD8
:10526000C491CC23A9F0162F81110E949828EC2F0D
:10527000F0E0EE0FFF1FEE56F24FA591B4918FB7FD
:10528000F894EC91111108C0D095DE23DC938FBF08
:10529000DF91CF911F910895DE2BF8CFCF93DF934D
:1052A000282F30E0F901E65DF24F8491F901E85BC7
:1052B000F24FD491F901EA59F24FC491CC23A1F0F5
:1052C00081110E949828EC2FF0E0EE0FFF1FEC57A1
:1052D000F24FA591B491EC91ED2381E090E009F4B7
:1052E00080E0DF91CF91089580E090E0FACFCF93F6
:1052F000DF931F92CDB7DEB76983DC01ED91FC919E
:105300000280F381E02D41E050E0BE016F5F7F4FEE
:1053100009950F90DF91CF910895CF93DF93EC0122
:105320008C859D8597FF05C082E00E94A42D9D87F6
:105330008C878C859D85DF91CF91089583E00C94B7
:10534000CE2FFC018485958597FD06C082E00E94E2
:10535000532D90E00196089582E00E94532D90E035
:105360000895FC018485958597FD05C02FEF3FEFDB
:1053700035872487089582E00C94A42DCF93DF9382
:10538000EC0180913D01882331F083E00E94D52D0E
:105390001816190634F081E090E09B838A8380E040
:1053A00090E0DF91CF910895FC0190819E5F908302
:1053B00042E450E06EEA7DE080E80C946B2EFC0144
:1053C00081819081913A61F4813209F04DC047E0CA
:1053D00050E066E371E080E00E946B2E81E008956A
:1053E000913209F041C0803241F567E070E086E318
:1053F00091E00E94912E8091360190913701A09109
:105400003801B0913901803B9440A105B105D9F430
:1054100080913D0180FD17C087E797E790930108D1
:105420008093000888E19BE00FB6F894A8958093DC
:1054300060000FBE90936000D1CF823279F68281F6
:1054400080933D01D8CF0FB6F894A8958091600065
:10545000886180936000109260000FBEA895109242
:10546000010810920008BACF80E008952FEF3FEFB7
:10547000FC01358724870895E4EDF3E0138212825E
:1054800088EE93E0A0E0B0E084839583A683B783A1
:1054900089E292E0918380838FEF9FEF95878487E5
:1054A0000895FC0190819F5F908349E150E060EF97
:1054B0007DE080E80C946B2E42E250E069E07EE0F3
:1054C00080E80C946B2EEF92FF920F931F93CF9373
:1054D000DF931F92CDB7DEB789838B017A0141E05C
:1054E00050E0BE016F5F7F4F84E00E94D52DA70181
:1054F000B80184E40E94D52D0F90DF91CF911F91C8
:105500000F91FF90EF900895FC0191818081813A85
:1055100031F49D7F81E0913009F080E0089581327F
:10552000E1F79B3029F4828180933F0181E0089567
:105530009A3099F7828180933E01F8CFCF93DF9321
:1055400000D000D000D0CDB7DEB7FB0180819181C3
:105550009A838983828193819C838B8384819581C3
:105560009E838D8346E050E0BE016F5F7F4F81E0F8
:105570000E94632A26960FB6F894DEBF0FBECDBFF9
:10558000DF91CF910895FB0101900020E9F7319759
:10559000AF01461B570BDC01ED91FC910280F381BA
:1055A000E02D09946115710511F00C94C32A90E067
:1055B00080E00895DC01ED91FC910190F081E02DF7
:1055C00009940F931F93CF93DF93EC016DE00E943A
:1055D000DA2A8C016AE0CE010E94DA2A800F911F3C
:1055E000DF91CF911F910F9108950F931F93CF9348
:1055F000DF938C01D0E0C0E06115710519F00E94C5
:10560000C32AEC01C8010E94E12A8C0F9D1FDF9183
:10561000CF911F910F9108958F929F92AF92BF9259
:10562000CF92DF92EF92FF920F931F93CF93DF936E
:10563000CDB7DEB7A1970FB6F894DEBF0FBECDBFD2
:105640006C01142FE52FCB01022F19A2223008F490
:105650000AE07E0121E2E20EF11C802E912CB12C99
:10566000A12C612F7E2FA50194010E946534029F19
:10567000101911241A303CF5105DF70112937F01C7
:10568000122FE32FCA01232B242B252B51F790E057
:1056900080E0E114F10421F0B701C6010E94C32AA1
:1056A000A1960FB6F894DEBF0FBECDBFDF91CF91AC
:1056B0001F910F91FF90EF90DF90CF90BF90AF9030
:1056C0009F908F900895195CD8CFCF92DF92EF9280
:1056D000FF920F931F93CF93DF932115310581F430
:1056E000DC01ED91FC910190F081E02D642FDF91C0
:1056F000CF911F910F91FF90EF90DF90CF90099481
:105700002A30310501F52AE077FF1DC06A017B01CF
:10571000EC016DE20E94DA2A8C0144275527BA0178
:105720004C195D096E097F092AE0CE010E940C2BFD
:10573000800F911FDF91CF911F910F91FF90EF90FC
:10574000DF90CF900895DF91CF911F910F91FF903F
:10575000EF90DF90CF900C940C2B9A01AB01770F58
:10576000660B770B0C94652B0F931F93CF93DF93EE
:10577000EC010E94652B8C01CE010E94E12A800F72
:10578000911FDF91CF911F910F9108952115310540
:1057900041F4DC01ED91FC910190F081E02D642F4A
:1057A00009940C940C2B9A01462F50E070E060E0B5
:1057B0000C94C62B0F931F93CF93DF93EC010E94A1
:1057C000D32B8C01CE010E94E12A800F911FDF9123
:1057D000CF911F910F9108952F923F924F925F9218
:1057E0006F927F928F929F92AF92BF92CF92DF92F1
:1057F000EF92FF921F93CF93DF93EC016A017B013D
:10580000722EAB019601CB01B6010E94233465E3F1
:1058100072E0811126C046015701E894B7F82FEFD6
:105820003FEF4FE75FE7C501B4010E9423348111C8
:105830000CC02FEF3FEF4FE75FE7C501B4010E94B7
:10584000593169E372E0181664F02FEF3FEF4FE72C
:105850005FE4C701B6010E9457331816B4F46DE334
:1058600072E0CE01DF91CF911F91FF90EF90DF901A
:10587000CF90BF90AF909F908F907F906F905F90F0
:105880004F903F902F900C94C32A2FEF3FEF4FE79C
:105890005FECC701B6010E94593187FDE0CF20E0DF
:1058A00030E0A901C701B6010E945931312C212CE9
:1058B00087FF09C06DE2CE010E94DA2A1C01F7FAC7
:1058C000F094F7F8F09410E060E070E080E09FE37F
:1058D000711641F020E030E040E251E40E94633173
:1058E0001F5FF6CFA70196010E9460302B013C019B
:1058F0000E94DC314B015C012AE0BC01A401CE0115
:105900000E940C2B7C01E20CF31C1123C1F1C50198
:10591000B4010E940B329B01AC01C301B2010E9491
:105920005F304B015C0161E472E0CE010E94C32A4A
:10593000E80EF91E115018F120E030E040E251E489
:10594000C501B4010E9464332B013C010E94D53192
:105950004B014AE050E0CE010E94AD2BE80EF91E4B
:10596000B401990C880B990B0E940D329B01AC017C
:10597000C301B2010E945F304B015C01DBCFC70164
:10598000DF91CF911F91FF90EF90DF90CF90BF906C
:10599000AF909F908F907F906F905F904F903F90CF
:1059A0002F9008950C94EC2B0F931F93CF93DF93BC
:1059B000EC010E94EC2B8C01CE010E94E12A800FA9
:1059C000911FDF91CF911F910F910895409129046C
:1059D00050912A042091270430912804421753073C
:1059E000B4F49091E8009570E1F39091E80092FD95
:1059F00019C08093F1008091290490912A040196A6
:105A00008F739927892B19F48EEF8093E80080918A
:105A1000290490912A04019690932A0480932904E2
:105A200081E0089580E00895EF92FF920F931F9315
:105A3000CF93DF93182FE92E062F81E0860F880F72
:105A40000E94E62C83E00E94E62CF12EC12FDE2D71
:105A5000FE0184910E94E62C182F80E00E94E62C23
:105A6000812329F021969C2F9F19901788F3DF91AD
:105A7000CF911F910F91FF90EF900895615030F0FA
:105A80002091F100FC0120830196F8CF289884E64C
:105A900080932C0408952FB7FC012083F89467703D
:105AA0006093E9000895CF93DF931F92CDB7DEB7DF
:105AB000682FCE0101960E944B2D8091F2009981B2
:105AC0009FBF0F90DF91CF910895EF92FF920F93B8
:105AD0001F93CF93DF931F92CDB7DEB790912B0426
