:100000000C9429070C9451070C9451070C94510738
:100010000C9451070C9451070C9451070C94510700
:100020000C9451070C9451070C941D280C94FB263A
:100030000C9451070C9451070C9451070C945107E0
:100040000C9451070C9451070C9451070C945107D0
:100050000C9451070C9451070C9451070C947F2079
:100060000C9451070C9451070C9451070C945107B0
:100070000C9451070C9451070C9451070C945107A0
:100080000C9451070C9451070C9451070C94510790
:100090000C944F110C9451070C9451070C94510778
:1000A0000C9451070C9451070C945107036EDB36E6
:1000B0003D9A9999993DABAAAA2A3E000000803F3B
:1000C000084AD73B3BCE016E84BCBFFDC12F3D6CBF
:1000D00074319ABD56833DDA3D00C77F11BED9E425
:1000E000BB4C3E916BAAAABE000000803F072C7A51
:1000F000A5BA6CC590DA3B9365FC8BBC53F810FD38
:100100003C5692834DBD879D3AB63DCBC9BF5BBE81
:1001100073DA0FC93F0000007000000000240000E7
:1001200000020003000000650054FFEF0000FA80A9
:10013000000B12820001030C30C30E8C8CE914D525
:10014000400213710F8E3883F8833000F883258EB8
:10015000F8833000F883FFFFFFFF0FFEA9D62400CD
:1001600004001A8279A10000003CFFFF000000108B
:10017000000038836FA2003E03304000000002CA36
:10018000E3093E8000002000000000000000400065
:10019000000060000000000C0000000C186E000061
:1001A00006920A16C0DFFFFF0256FD8CD377FFE1EF
:1001B000C496E0C5BEAA00000000FFFF0B2B0000A4
:1001C0001657000003594000000000001DFA00020D
:1001D0006C1D000000003FFFDFEB003EB3B6000DDA
:1001E000227800002F3C00000000001942B50000FA
:1001F00039A20000B365D90E9FC91DCF4C34300021
:100200000000500000003BB67AE80064000000C81F
:10021000000000000000100000001000FA92100022
:10022000225E000D229F0001000000320000FF4608
:10023000000063D400001000000004D6000004CCCD
:10024000000004CC0000000010720000004000001C
:10025000000000000000000600020005000700008A
:100260000000006400000000000000000005000520
:1002700000640020000000000000000000000000FA
:1002800040000000030000000032F8980000FF6505
:100290000000830F0000FF9BFC0000000000000036
:1002A000000000000000000000000000000000004E
:1002B000000000000000000000000000000000003E
:1002C00000000000100040000000000000060000D8
:1002D000B26A000200000001FB830068000000D940
:1002E000FC007CF1FF83000000000065000000645A
:1002F00003E800640028000000250000000016A0AC
:1003000000000000100000001000002F000000009E
:1003100001F40000100000280000FFFF4581FFFFEE
:10032000FA72000000000000000000440005000513
:10033000BAC6004778A200000001000000000000DB
:100340000600000000140000254D002F706D000015
:1003500005AE000C02D0000000000000000000000C
:10036000000000000000001B000000000000000072
:100370000000000000000064000000080000000011
:10038000000000000000000000000000000000006D
:10039000000000000000000000000000000000005D
:1003A000000000000000000000000000000000004D
:1003B000000000000000000000000000000000003D
:1003C000000000000000000000000000000000002D
:1003D000000000000000001B000000000000000002
:1003E0000000000E000E00000AC70004000000001C
:1003F0000032FFFFFF9C00000B2B000000020000FA
:10040000000100000064FFE50000000000000000A3
:1004100000000000000000000001000000000001DA
:1004200000000000000000018000000180000001C9
:100430008000002426D30000000000000000000619
:1004400000100096003C00000000000000000000CA
:100450000000000000000C0A4E68CDCF770950164E
:100460006759C619CE82000000000000000000009D
:10047000000000000000000000000000000017D78E
:100480008400030000000000000000000000C7938B
:100490008F9D1E1B1C1900000000000000000000C2
:1004A0000000000000000000000000000000020347
:1004B0001885000040000000000300000003000059
:1004C00000000000000040000000000000000000EC
:1004D000000000000000000000000000000000001C
:1004E000000000000000000000000000000000000C
:1004F00000000000000000000000677DDF7E7290B9
:100500002E554CF6E68800000000000000000000B8
:10051000000000000000D8DCB4B8B0D8B9ABF3F8E4
:10052000FAB3B7BB8E9EAEF132F51BF1B4B8B08012
:1005300097F1A9DFDFDFAADFDFDFF2AAC5CDC7A908
:100540000CC92C97F1A989264666B28999A92D551F
:100550007DB0B08AA896365676F1BAA3B4B280C000
:10056000B8A89711B28398BAA3F02408441064186D
:10057000B2B9B49883F1A329557DBAB5B1A38393D9
:10058000F0002850F5B2B6AA839328547CF1B9A3A1
:10059000829361BAA2DADEDFDB819AB9AEF56068D8
:1005A00070F1DABAA2DFD9BAA2FAB9A38292DB312A
:1005B000BAA2D9BAA2F8DF85A4D0C1BBAD83C2C5A7
:1005C000C7B8A2DFDFDFBAA0DFDFDFD8D8F1B8AA73
:1005D000B38DB4980D355DB2B6BAAF8C96198F9FB6
:1005E000A70E161EB49AB8AA872C547CBAA4B08A57
:1005F000B691325676B28494A4C808CDD8B8B4B0B7
:10060000F19982A82D557D98A80E161EA22C547C17
:1006100092A4F02C5078F184A898C4CDFCD80DDBBE
:10062000A8FC2DF3D9BAA6F8DABAA6DED8BAB2B6C3
:100630008696A6D0F3C841DAA6C8F8D8B0B4B88276
:10064000A892F52C548898F135D9F418D8F1A2D095
:10065000F8F9A884D9C7DFF8F883C5DADF69DF8342
:10066000C1D8F40114F1A8824EA884F311D182F507
:10067000D992289788F109F41C1CD884A8F3C0F9F2
:10068000D1D99782F129F40DD8F3F9F9D1D982F4AF
:10069000C203D8DEDF1AD8F1A2FAF9A88498D9C724
:1006A000DFF8F8F883C7DADF69DFF883C3D8F4012D
:1006B00014F198A8822EA884F311D182F5D9925012
:1006C0009788F109F41CD884A8F3C0F8F9D1D99718
:1006D00082F149F40DD8F3F9F9D1D982F4C403D8E1
:1006E000DEDFD8F1AD8898CCA809F9D98292A8F5B7
:1006F0007CF1883ACF944A6E98DB6931DAADF2DE4C
:10070000F9D88795A8F221D1DAA5F9F417D9F1AE75
:100710008ED0C0C3AE82C684C3A88595C8A588F212
:10072000C0F1F4010EF18E9EA8C63E56F554F18834
:1007300072F40115F19845856EF58E9E0488F1429C
:10074000985A8E9E068869F4011CF1981E1108D0F3
:10075000F504F11E970202983625DBF9D985A5F339
:10076000C1DA85A5F3DFD88595A8F309DAA5FAD80B
:100770008292A8F578F1881A849F26889821DAF465
:100780001DF3D8879F39D1AFD9DFDFFBF9F40CF324
:10079000D8FAD0F8DAF9F9D0DFD9F9D8F40BD8F3D0
:1007A000879F39D1AFD9DFDFF41DF3D8FAFCA869F0
:1007B000F9F9AFD0DADEFAD9F88F9FA8F1CCF39827
:1007C000DB45D9AFDFD0F8D8F18F9FA8CAF38809ED
:1007D000DAAF8FCBF8D8F2AD978D0CD9A5DFF9BA87
:1007E000A6F3FAF412F2D8950DD1D9BAA6F3FADA33
:1007F000A5F2C1BAA6F3DFD8F1BAB2B68696A6D0F2
:10080000CAF349DAA6CBF8D8B0B4B8D8AD84F2C0F0
:10081000DFF18FCBC3A8B2B68696C8C1CBC3F3B005
:10082000B48898A821DB718D9D71859521D9ADF291
:10083000FAD88597A828D9F408D8F28D29DAF405D2
:10084000D9F285A4C2F2D8A88D9401D1D9F411F2BD
:10085000D88721D8F40AD8F28498A8C801D1D9F44D
:1008600011D8F3A4C8BBAFD0F2DEF8F8F8F8F8F866
:10087000F8F8D8F1B8F6B5B9B08A95A3DE3CA3D99B
:10088000F8D85CA3D9F8D87CA3D9F8D8F8F9D1A5C1
:10089000D9DFDAFAD8B18530F7D9DED8F830ADDA59
:1008A000DED8F2B48C99A32D557DA083DFDFDFB5B0
:1008B00091A0F629D9FBD8A0FC29D9FAD8A0D0510B
:1008C000D9F8D8FC51D9F9D879D9FBD8A0D0FC797E
:1008D000D9FAD8A1F9F9F9F9F9A0DADFDFDFD8A15F
:1008E000F8F8F8F8F8ACDEF8ADDE8393AC2C547C65
:1008F000F1A8DFDFDFF69D2CDAA0DFD9FADB2DF8D7
:10090000D8A850DAA0D0DED9D0F8F8F8DB55F8D85E
:10091000A878DAA0D0DFD9D0FAF8F8F8F8DB7DF8BB
:10092000D89CA88CF530DB38D9D0DEDFA0D0DEDF54
:10093000D8A848DB58D9DFD0DEA0DFD0DED8A86841
:10094000DB70D9DFDFA0DFDFD8F1A888902C547CE2
:1009500098A8D05C38D1DAF2AE8CDFF9D8B087A88D
:10096000C1C1B188A8C6F9F9DA36D8A8F9DA36D8FB
:10097000A8F9DA36D8A8F9DA36D8A8F9DA36D8F7E5
:100980008D9DADF818DAF2AEDFD8F7ADFA30D9A404
:10099000DEF9D8F2AEDEFAF983A7D9C3C5C7F1886C
:1009A0009BA77AADF7DEDFA4F8849408A797F3003D
:1009B000AEF29819A488C6A39488F632DFF2839326
:1009C000DB09D9F2AADFD8D8AEF8F9D1DAF3A4DE80
:1009D000A7F1889B7AD8F38494AE19F9DAAAF1DFEB
:1009E000D8A881C0C3C5C7A39283F628ADDED9F8C5
:1009F000D8A350ADD9F8D8A378ADD9F8D8F8F9D1A3
:100A0000A1DADEC3C5C7D8A18194F818F2B089ACC9
:100A1000C3C5C7F1D8B8B4B09786A8319B0699076B
:100A2000AB9728889BF00C201440B0B4B8F0A88A8B
:100A30009A285078B79BA82951792470594469386D
:100A4000644831F1BBAB88002C547CF0B38BB8A860
:100A500004285078F1B088B49726A85998BBABB356
:100A60008B02264666B0B8F08A9CA82951798B295A
:100A700051798A2470598B2058718A4469388B398E
:100A800040688A6448318B30496088F1AC002C544E
:100A90007CF08CA804285078F1889726A85998AC47
:100AA0008C02264666F0899CA82951792470594405
:100AB0006938644831A98809205970AB11384069F8
:100AC000A8193148608CA83C415C207C00F18798D3
:100AD0001986A86E767EA999882D557DD8B1B5B9AD
:100AE000A3DFDFDFAED0DFAAD0DEF2ABF8F9D9B0FA
:100AF00087C4AAF1DFDFBBAFDFDFB9D8B1F1A397BD
:100B00008E60DFB084F2C8F8F9D9DED89385F14A57
:100B1000B183A308B5839A0810B79F10D8F1B0BA73
:100B2000AEB08AC2B2B68E9EF1FBD9F41DD8F9D907
:100B30000CF1D8F8F8AD61D9AEFBD8F40CF1D8F8C7
:100B4000F8AD19D9AEFBDFD8F416F1D8F8AD8D6148
:100B5000D9F4F4ACF59C9C8DDF2BBAB6AEFAF8F460
:100B60000BD8F1AED0F8AD51DAAEFAF8F1D8B9B190
:100B7000B6A3839C08B9B1839AB5AAC0FD3083B7E8
:100B80009F10B58B93F20202D1ABDADED8F1B080C0
:100B9000BAABC0C3B284C1C3D8B1B9F38BA391B609
:100BA00009B4D9ABDEB0879CB9A3DDF1B38B8B8BD5
:100BB0008B8BB087A3A3A3A3B28BB69BF2A3A3A3F3
:100BC000A3A3A3A3A3A3A3F1B087B59AA3F39BA365
:100BD000A3DCBAACDFB9A3A3A3A3A3A3A3A3A3A33A
:100BE000A3A3A3A3A3A3D8D8D8BBB3B7F1AAF9DA18
:100BF000FFD9809AAA28B48098A720B79787A866BB
:100C000088F07951F1902C870CA781976293F0714D
:100C1000716085940129517990A5F1284C6C870C5D
:100C200095188578A38390284C6C886CD8F3A282A1
:100C300000F210A8921980A2F2D926D8F188A84D06
:100C4000D948D896A83980D93CD89580A839A686A5
:100C500098D92CDA87A72CD8A8899519A980D938D2
:100C6000D8A88939A980DA3CD8A82EA83990D90CFF
:100C7000D8A8953198D90CD8A809D9FFD801DAFF9E
:100C8000D89539A9DA26FFD890A80D8999A810809F
:100C90009821DA2ED88999A83180DA2ED8A886969C
:100CA0003180DA2ED8A8873180DA2ED8A88292F344
:100CB0004180F1D92ED8A882F31980F1D92ED8829B
:100CC000ACF3C0A28022F1A62EA72EA92298A829B3
:100CD000DAACDEFFD8A2F22AF1A92E8292A8F23174
:100CE00080A696F1D900AC8C9C0C30ACDED0DEFF37
:100CF000D88C9CACD010ACDE8092A2F24C82A8F1D1
:100D0000CAF235F19688A6D900D8F1FF000000029A
:100D100000090F0000030401000C000000000000A7
:100D20000000000000000000000004080201104064
:100D30008040102040804080080204018040201044
:100D40000201108010204040040404040403040540
:100D50000202020204030202020206060606060658
:100D600004040202020400000000250028002B00F9
:100D70002E00310000000000240027002A002D0072
:100D80003000080B00020202010009040000010209
:100D900002000005240010010524010101042402C1
:100DA000060524060001070581031000400904011F
:100DB00000020A0000000705020240000007058348
:100DC0000240000000C18081C11201000202000047
:100DD000404123368000010102000112010002009F
:100DE000000040412336800001010200014172648D
:100DF00075696E6F204C4C43004544547261636BBF
:100E00006572204544547261636B6572320004035D
:100E10000904090402000103000000092101010086
:100E2000012222000705840340000105010904A1F5
:100E30000185010901A100050109300931093216B6
:100E4000008026FF7F751095038182C0C00060106E
:100E5000F32211241FBECFEFDAE0DEBFCDBF12E0D8
:100E6000A0E0B1E0EEE2FAE502C005900D92AE38E6
:100E7000B107D9F724E0AEE8B2E001C01D92A53178
:100E8000B207E1F717E0C9E2D7E004C02197FE01FD
:100E90000E94CB2CC732D107C9F70E9490280C942E
:100EA000152D0C940000CF93DF93D82FC62F6FE63B
:100EB00071E08CEB93E00E9417236D2F70E04AE005
:100EC00050E08CEB93E00E94F22361E871E08CEB40
:100ED00093E00E9417236C2F70E04AE050E08CEB07
:100EE00093E0DF91CF910C94F923CF92DF92EF92B0
:100EF000FF920F931F93CF93DF936A017B01EC0165
:100F000024968C010F5F1F4F4C2DBC0189EA93E0A2
:100F10000E944513CD2CDE2CEF2CFF24E7FCFA9425
:100F2000C8010C171D0769F7DF91CF911F910F9131
:100F3000FF90EF90DF90CF900895CF92DF92EF92E5
:100F4000FF921F93CF93DF93EC01BC016D5F7F4F46
:100F500089EA93E00E944213182FBE016E5F7F4F13
:100F600089EA93E00E94421390E0B0E0A0E07C01A7
:100F7000DD24CC24F12ABE016F5F7F4F89EA93E024
:100F80000E944213182FBE0189EA93E00E94421387
:100F9000C82AC701B601712BDF91CF911F91FF9035
:100FA000EF90DF90CF90089588EE92E00E94401974
:100FB00088E70E94D81880ED97E00E94A71582E08C
:100FC0000E94001688E70E947E1684E690E00E9448
:100FD0007D180E94551B88E890E00E945F1B83E506
:100FE00097E00E945B2081ED90E00E947E1E84E6E7
:100FF00090E00C941E1C14BE0FB6F894A895809136
:101000006000886180936000109260000FBE40E035
:1010100052EC61E070E08CEB93E00E94ED2264EF13
:1010200071E080E090E00E94FA2061E081E10E949E
:10103000C42189EE92E00E942610449845980E94AF
:10104000D40764E670E080E090E00E94FA2081E03E
:101050000E94E81A64E670E080E090E00E94FA20C6
:1010600081EC92E00E94D11364E670E080E090E0B1
:101070000E94FA2064E670E080E090E00E94FA208E
:1010800061E270E089EA93E00E944213823018F432
:101090008093C002089581E08093C00241E061E244
:1010A00070E089EA93E00C944513EF92FF920F935E
:1010B0001F93CF93DF9389EDE82E82E0F82E0DEC9D
:1010C00012E0C1E0D0E0F70141915191619171913D
:1010D0007F01CE010E947507F80141915191619104
:1010E00071918F01CE010C960E9475072496CD3028
:1010F000D10549F7DF91CF911F910F91FF90EF90AC
:1011000008950F931F93CF93DF93EC018C010A5F37
:101110001F4F699179914AE050E08CEB93E00E9477
:10112000F2236FE971E08CEB93E00E941723C01764
:10113000D10779F7DF91CF911F910F9108950F9308
:101140001F93CF93DF93EC018C01045F1F4F4991F4
:101150005991699179912AE030E08CEB93E00E94FB
:10116000AA236FE971E08CEB93E00E941723C0176C
:10117000D10769F7DF91CF911F910F910895CF9318
:10118000DF93EB01BC018CEB93E00E9417234881B5
:1011900059816A817B812AE030E08CEB93E00E94E8
:1011A000AA236FE771E08CEB93E00E9417234C8138
:1011B0005D816E817F812AE030E08CEB93E00E94BC
:1011C000AA236FE771E08CEB93E00E941723488518
:1011D00059856A857B852AE030E08CEB93E0DF91CE
:1011E000CF910C940B2469ED72E083E891E00E94AA
:1011F000BF086DEC72E080E991E00E94BF086EE9E3
:1012000071E08CEB93E00E94172389ED92E00E943D
:101210009F088DEC92E00E949F0860EA71E08CEBE1
:1012200093E00C943A23EF92FF920F931F93CF9386
:10123000DF9381EC92E00E942B1464E670E080E082
:1012400090E00E94FA2089EDE82E82E0F82E0DEC65
:1012500012E0C1E0D0E0CE010E949D07F70161934A
:101260007193819391937F01CE010C960E949D070B
:10127000F80161937193819391938F012496CD30FE
:10128000D10549F789ED92E00E9402148DEC92E0BD
:10129000DF91CF911F910F91FF90EF900C942B1441
:1012A0006EEB71E08CEB93E00E9417234AE050E074
:1012B0006091C0028CEB93E00C9431246F927F928A
:1012C0008F929F92AF92BF92CF92DF92EF92FF9256
:1012D0000F931F93CF93DF93CDB7DEB72C970FB645
:1012E000F894DEBF0FBECDBF19821A821B821C820A
:1012F0001D821E821F82188619861A861B861C86EE
:1013000061EA71E08CEB93E00E943A23CE010196F2
:101310000E94021481EC92E00E942B1468EE73E0AC
:1013200080E090E00E94FA206AE0862E912C72E123
:10133000A72EB12CE0E1CE2ED12C55E0652E712CDC
:101340004FEAE42E42E0F42E0DE912E02BEA32E0FF
:1013500040EB52E06FE972E085EA92E00E94981F4C
:1013600080919F029091A0020996439788F4809102
:10137000A1029091A2020996439750F48091A30292
:101380009091A4020996439718F4CC24C394D12CCD
:101390008091A5029091A6020996439788F48091C6
:1013A000A7029091A8020996439750F48091A90250
:1013B0009091AA020996439718F4AA24A394B12CF9
:1013C0006AE070E080E090E00E94FA208091E502FF
:1013D0009091E6028230910508F18230910509F082
:1013E00041C02091A1023091A202121613060CF402
:1013F00029C1232B09F43FC14091D1025091D2025F
:101400006091D3027091D40286010D2C000C220B46
:10141000330B401B510B620B730B25C120919F02B4
:101420003091A002121613060CF0F7C04091CD02C5
:101430005091CE026091CF027091D00286010D2CA6
:10144000000C220B330B400F511F621F731F409380
:10145000CD025093CE026093CF027093D0020097DA
:1014600009F4BFCF8330910509F088C02091A30211
:101470003091A402213040E434070CF400C14091C3
:10148000D5025091D6026091D7027091D8028601A0
:101490000D2C000C220B330B400F511F621F731FCA
:1014A0004093D5025093D6026093D7027093D8022E
:1014B000892B09F063C08091A5029091A602823029
:1014C00091050CF4F2C08091D9029091DA02A091BA
:1014D000DB02B091DC02A5010B2C000C660B770B34
:1014E000841B950BA60BB70B8093D9029093DA025D
:1014F000A093DB02B093DC028091A7029091A80236
:10150000823091050CF4E7C08091DD029091DE02FB
:10151000A091DF02B091E002A5010B2C000C660B3C
:10152000770B841B950BA60BB70B8093DD02909372
:10153000DE02A093DF02B093E0028091A9029091B5
:10154000AA02823091050CF4DCC08091E1029091F6
:10155000E202A091E302B091E402A5010B2C000C81
:10156000660B770B841B950BA60BB70B8093E102E0
:101570009093E202A093E302B093E40241E0641A84
:10158000710809F0DDCE81E0C816D10411F0D594C0
:10159000C79421E0A216B10411F0B594A79481EC90
:1015A00092E00E942B1489ED92E00E9402148DECCF
:1015B00092E00E942B1460E273E080E090E00E94D1
:1015C000FA2041E0841A910809F0B7CE69ED72E083
:1015D00083E891E00E94BF086DEC72E08FEA91E031
:1015E0000E94BF080E94F3080E9455080E94130938
:1015F0002C960FB6F894DEBF0FBECDBFDF91CF9112
:101600001F910F91FF90EF90DF90CF90BF90AF9020
:101610009F908F907F906F900895232B09F41FCF98
:101620004091CD025091CE026091CF027091D002D4
:1016300086010D2C000C220B330B401B510B620B4F
:10164000730B05CF4091D1025091D2026091D30229
:101650007091D40286010D2C000C220B330B400F2D
:10166000511F621F731F4093D1025093D2026093A7
:10167000D3027093D402009709F4F8CEF3CE21156B
:10168000304409F415CF4091D5025091D6026091B3
:10169000D7027091D80286010D2C000C220B330B5F
:1016A000401B510B620B730BFBCE8F3F9F4F0CF017
:1016B00023CF8091D9029091DA02A091DB02B09100
:1016C000DC02A5010B2C000C660B770B840F951F19
:1016D000A61FB71F09CF8F3F9F4F0CF02ECF8091D1
:1016E000DD029091DE02A091DF02B091E002A5013F
:1016F0000B2C000C660B770B840F951FA61FB71FD2
:1017000014CF8F3F9F4F0CF039CF8091E102909121
:10171000E202A091E302B091E402A5010B2C000CBF
:10172000660B770B840F951FA61FB71F1FCFCF9394
:10173000DF938CEB93E00E945822181619060CF0E8
:1017400095C18CEB93E00E946822833549F4109296
:10175000E70261EC71E08CEB93E00E943A2348C011
:101760008A3609F452C08A3451F18B3409F459C0D5
:101770008B3609F46AC08C3609F487C08C3409F4BE
:1017800070C08D3409F48DC08D3609F49EC08E343E
:1017900009F4A7C08E3609F4B8C08F3409F4C1C06B
:1017A0008F3609F0D2C08091E1029091E202A091BF
:1017B000E302B091E4020197A109B109BDC0809193
:1017C000CD029091CE02A091CF02B091D0020196AD
:1017D000A11DB11D8093CD029093CE02A093CF02A4
:1017E000B093D0020E94F3080E9455080E9413098A
:1017F0008CEB93E00E945822181619060CF036C1A3
:101800008CEB93E00E946822F3CF8091CD029091FF
:10181000CE02A091CF02B091D0020197A109B109E7
:10182000D9CF8091D1029091D202A091D302B091F0
:10183000D4020196A11DB11D8093D1029093D202D2
:10184000A093D302B093D402CDCF8091D1029091D6
:10185000D202A091D302B091D4020197A109B1099B
:10186000EBCF8091D5029091D602A091D702B09192
:10187000D8020196A11DB11D8093D5029093D60286
:10188000A093D702B093D802ADCF8091D5029091AA
:10189000D602A091D702B091D8020197A109B1094F
:1018A000EBCF8091D9029091DA02A091DB02B09146
:1018B000DC020196A11DB11D8093D9029093DA023A
:1018C000A093DB02B093DC028DCF8091D90290917E
:1018D000DA02A091DB02B091DC020197A109B10903
:1018E000EBCF8091DD029091DE02A091DF02B091FA
:1018F000E0020196A11DB11D8093DD029093DE02EE
:10190000A093DF02B093E0026DCF8091DD02909151
:10191000DE02A091DF02B091E0020197A109B109B6
:10192000EBCF8091E1029091E202A091E302B091AD
:10193000E4020196A11DB11D8093E1029093E202A1
:10194000A093E302B093E4024DCF883749F481E0DD
:1019500090E09093E6028093E50263EC71E0FBCEA9
:10196000893749F482E090E09093E6028093E502A3
:1019700065EC71E0F0CE8A3749F483E090E0909313
:10198000E6028093E50267EC71E0E5CE813639F43A
:101990001092E6021092E50269EC71E0DCCE803331
:1019A000A9F4D0E0C0E040E0BE0189EA93E00E94E3
:1019B00045132196CF3FD105B1F71092C0020E9486
:1019C00013090E94F3080E94500912CF863551F482
:1019D0006BEC71E08CEB93E00E943A2381E0809302
:1019E000E70206CF6DEC71E0883409F4B4CE80379D
:1019F00071F441E08091C002811140E04093C00247
:101A000061E270E089EA93E00E944513DCCF8934FB
:101A100039F56FEC71E08CEB93E00E94172362EDD7
:101A200071E08CEB93E00E943A230E9413090E941C
:101A3000F30861EC72E080EF91E00E94BF080E9421
:101A400050096DEF71E08CEB93E00E9417234AE0A0
:101A500050E06091E8028CEB93E00E943124C8CE04
:101A6000823409F0C5CE0E945E09C2CEDF91CF91CB
:101A700008954F925F926F927F928F929F92AF9252
:101A8000BF92CF92DF92EF92FF920F931F93CF936B
:101A9000DF93CDB7DEB7A0970FB6F894DEBF0FBEC9
:101AA000CDBF0E94970B0E94C920C0909802D09091
:101AB0009902E0909A02F0909B02C616D706E806BB
:101AC000F906D0F40E94C92068537F4F8F4F9F4F73
:101AD000609398027093990280939A0290939B026C
:101AE00060919C0281E10E94002281E090919C0221
:101AF000911180E080939C028FEAE82E82E0F82E1C
:101B00000DE912E02BEA32E040EB52E06FE972E0BF
:101B100085EA92E00E94981F6091BC027091BD021C
:101B20008091BE029091BF02BC01992777FD9095EC
:101B3000892F0E94792A20E030E040E858E30E9493
:101B4000912B4B015C016091B8027091B9028091B8
:101B5000BA029091BB02BC01992777FD9095892F1D
:101B60000E94792A20E030E040E858E30E94912B5F
:101B70002B013C016091B4027091B5028091B602D4
:101B80009091B702BC01992777FD9095892F0E940B
:101B9000792A20E030E040E858E30E94912B6D83E1
:101BA0007E838F8398876091B0027091B10280919B
:101BB000B2029091B302BC01992777FD9095892FCD
:101BC0000E94792A20E030E040E858E30E94912BFF
:101BD00069877A878B879C879B01AC010E94912B38
:101BE0006D877E878F87988B2D813E814F815885A9
:101BF000CA01B9010E94912B6D8B7E8B8F8B988FC0
:101C0000A3019201C301B2010E94912B698F7A8FC7
:101C10008B8F9C8FA5019401C501B4010E94912B6B
:101C20006D8F7E8F8F8F98A32D893E894F89588D18
:101C30006D857E858F8598890E94D028298D3A8D63
:101C40004B8D5C8D0E94D0282D8D3E8D4F8D58A1DF
:101C50000E94D1286B017C01A3019201C501B4014E
:101C60000E94912B698B7A8B8B8B9C8B29853A8573
:101C70004B855C856D817E818F8198850E94912B3B
:101C80009B01AC0169897A898B899C890E94D12842
:101C90009B01AC010E94D128A70196010E946B29EB
:101CA000698B7A8B8B8B9C8B2D813E814F815885E4
:101CB000C501B4010E94912B6B017C0129853A85F5
:101CC0004B855C85C301B2010E94912B9B01AC0145
:101CD000C701B6010E94D0289B01AC010E94D12807
:101CE0000E943D296B017C012D893E894F89588DC9
:101CF0006D857E858F8598890E94D128298D3A8DA2
:101D00004B8D5C8D0E94D0282D8D3E8D4F8D58A11E
:101D10000E94D0286D877E878F87988B2D813E818A
:101D20004F815885C301B2010E94912B2B013C01C8
:101D300029853A854B855C85C501B4010E94912BAC
:101D40009B01AC01C301B2010E94D1289B01AC01EF
:101D50000E94D1282D853E854F8558890E946B2988
:101D60002091E702222309F4D4C090582DE338EFE4
:101D700042E256E40E94912B4B015C0125E030E0E9
:101D8000BC01A4018CEB93E00E9429256FE971E06E
:101D90008CEB93E00E9417232DE338EF42E256E4E8
:101DA000C701B6010E94912BAB01BC0125E030E0D8
:101DB0008CEB93E00E9429256FE971E08CEB93E0B6
:101DC0000E9417232DE338EF42E256E469897A89AD
:101DD0008B899C890E94912BAB01BC0125E030E0EE
:101DE0008CEB93E00E9429256FE971E08CEB93E086
:101DF0000E9417238FE992E00E94810885EA92E011
:101E00000E94810860EA71E08CEB93E00E943A2323
:101E100080918E0290918F02019690938F02809311
:101E20008E020E94C920C0909402D0909502E0904A
:101E30009602F0909702C616D706E806F90608F053
:101E400068C00E94C92068517C4F8F4F9F4F60939C
:101E50009402709395028093960290939702CE011C
:101E600001960E9484136DE072E08CEB93E00E9477
:101E7000172349815A816B817C812AE030E08CEB09
:101E800093E00E940B2460E172E08CEB93E00E94EF
:101E9000172320919002309191024091920250912B
:101EA0009302C501B4010E94D0286B017C016091AE
:101EB0008E0270918F02072E000C880B990B0E94E6
:101EC000792A9B01AC01C701B6010E94CF29AB0161
:101ED000BC0122E030E08CEB93E00E9429256FE901
:101EE00071E08CEB93E00E9417234AE050E070E031
:101EF00060E08CEB93E00E94F92310928F02109225
:101F00008E028092900290929102A0929202B092E0
:101F10009302A0960FB6F894DEBF0FBECDBFDF913F
:101F2000CF911F910F91FF90EF90DF90CF90BF90D6
:101F3000AF909F908F907F906F905F904F9008959B
:101F40008091190390911A03891B990B0895909120
:101F50001A03809119032FEF3FEF981748F4E92FE8
:101F6000F0E0E55EFC4F208130E09F5F90931A0324
:101F7000C9010895E0911A0380911903E81730F41C
:101F8000F0E0E55EFC4F808190E008958FEF9FEFD9
:101F900008950895CF93DF931F92CDB7DEB769837D
:101FA0002091F5022223F9F02091F602203258F018
:101FB00021E030E0FC013383228390E080E00F9049
:101FC000DF91CF9108958091F702E82FF0E0E8507B
:101FD000FD4F998190838F5F8093F7028093F60283
:101FE00081E090E0ECCF61E0CE0101960E942611E5
:101FF000F7CFCF92DF92EF92FF920F931F93CF9381
:10200000DF937C01CB018A012091F502222389F024
:10201000EB016B01C40ED51ECC15DD0569F069918D
:10202000D701ED91FC910190F081E02DC701099558
:10203000F3CF642F0E942611C801DF91CF911F9129
:102040000F91FF90EF90DF90CF90089510921A03B8
:10205000109219031092F7021092F6020C9471106C
:10206000862F413208F040E26BE173E00E948F104E
:1020700010921A0380931903089521E00C943010F4
:1020800081E08093F502609318031092F70210929A
:10209000F60208950F93062F21E04091F60268EFB3
:1020A00072E0809118030E94D3101092F7021092F0
:1020B000F6021092F5020F91089561E00C944A1017
:1020C000E9EEF2E01382128288EE93E0A0E0B0E045
:1020D00084839583A683B78387E192E0918380838D
:1020E00008951092A80381E08093A6031092A5039F
:1020F00061E082E00E94002261E083E00E94002211
:10210000E9EBF0E080818E7F808380818D7F80830A
:1021100088E48093B80085E48093BC000895413240
:1021200008F03FC09091A8039111FCCF91E09093EB
:10213000A8032093A6032FEF20933B031092800364
:10214000240F20937F039093A7039091A703880FF8
:10215000892B8093A7038091A5038130E9F4109225
:10216000A5038091A7038093BB0085EC8093BC00FE
:102170008091A8038130E1F380918003841710F4EB
:1021800040918003A1E8B3E0962FFB018E2F891BBD
:10219000841720F0842F089585EEE8CF8D918193E8
:1021A000F5CF40E0F7CF0F93413208F047C0909150
:1021B000A8039111FCCF92E09093A8030093A6038B
:1021C0009FEF90933B031092800340937F03362F41
:1021D000A1E8B3E0FB019E2F931B941750F11092DE
:1021E000A7039091A703880F892B8093A703809161
:1021F000A503813009F51092A5038091A703809370
:10220000BB0085EC8093BC00222321F08091A803C1
:102210008230D1F380913B038F3F91F080913B035B
:10222000803281F080913B03803371F084E00F9124
:10223000089591919D93CFCF85EEE4CF81E0F7CFC4
:1022400080E0F5CF82E0F3CF83E0F1CF613298F404
:102250002091A803243089F460935D03282FAFE513
:10226000B3E0FC018E2F821B861710F080E00895EA
:1022700081918D93F7CF81E0089582E0089585EDF7
:102280008093BC008091BC0084FDFCCF1092A80319
:10229000089585EC8093BC001092A80308951F92C6
:1022A0000F920FB60F9211242F933F934F935F938A
:1022B0006F937F938F939F93AF93BF93EF93FF930E
:1022C0008091B900887F803609F44CC008F03FC087
:1022D000883209F4A8C018F5803109F49CC0B8F41C
:1022E000882309F4F9C0883009F495C0FF91EF9173
:1022F000BF91AF919F918F917F916F915F914F911E
:102300003F912F910F900FBE0F901F90189588311D
:1023100009F489C0803251F780933B0315C08034A3
:1023200009F49EC048F48033B9F38833F9F68093FA
:102330003B030E944911DACF803509F485C0883506
:1023400009F496C0883491F60E943F11CFCF8839A6
:1023500009F48CC038F5883729F050F4883611F02C
:10236000803721F683E08093A80310923C0357C086
:10237000883809F47BC0803919F0803809F0B6CF6D
:1023800080913C03803208F071C0E0913C0381E011
:102390008E0F80933C038091BB00F0E0E35CFC4F28
:1023A00080833DC0803B39F0E0F4803A09F479C085
:1023B000883A09F09BCF84E08093A80310925E03D3
:1023C00010925D03E091A303F091A403099580911D
:1023D0005D0381110FC081E080935D0310925F0364
:1023E00009C0803C09F476C0883C09F473C0883B7E
:1023F00009F07CCFE0915E0381E08E0F80935E0355
:10240000F0E0E15AFC4F80818093BB0090915E0325
:1024100080915D0329C08091A7038093BB0085EC68
:102420008093BC0063CF9091800380917F039817C5
:1024300058F5E091800381E08E0F80938003F0E0F7
:10244000EF57FC4F8081E9CFE091800381E08E0F50
:10245000809380038091BB00F0E0EF57FC4F8083B6
:102460009091800380917F039817C8F285E8D8CFB8
:10247000E091800381E08E0F809380038091BB0008
:10248000F0E0EF57FC4F80838091A60381115CCF71
:1024900081E08093A50384EA8093BC001092A80396
:1024A00025CF80913C03803230F4E0913C03F0E092
:1024B000E35CFC4F10820E943F1160913C0370E08E
:1024C000E091A103F091A2038DE393E009951092AE
:1024D0003C032FCF85ECE0CF10923B0335CFFF922A
:1024E0000F931F93CF93DF93C62F042FF22E132F3A
:1024F000682F89EE92E00E9440106C2F89EE92E0E6
:102500000E94CA0FCF2DD12F0C0F1D2F111DC017E8
:10251000D10731F0699189EE92E00E94CA0FF7CF9E
:1025200089EE92E00E945D1091E0811190E0892F88
:10253000DF91CF911F910F91FF9008952F923F92BD
:102540004F925F926F927F928F929F92AF92BF92C3
:10255000CF92DF92EF92FF920F931F93CF93DF936F
:1025600000D01F92CDB7DEB7E82E69834B83690197
:102570000E94C9204B015C01F12C1A822B81222E72
:10258000312C2801712C612C8B81F81608F048C081
:102590006E2D89EE92E00E944010698189EE92E0F2
:1025A0000E94CA0F89EE92E00E945D106E2D89EEA6
:1025B00092E00E944010A1014F195109413251058A
:1025C00014F040E250E06E2D89EE92E00E943D1042
:1025D00089EE92E00E94A00F892BE1F00115110510
:1025E00071F489EE92E00E94A70FF6019A81E90F3B
:1025F000F11D97FDFA9580839F5F9A83E9CF0E9432
:10260000C920681979098A099B0964157505860529
:10261000970538F38B81813208F080E2F80EB4CF51
:1026200001151105C1F00E94C920681979098A09AC
:102630009B0930E020E0601771078207930758F08C
:102640002A81822F220F990B2B812817190619F046
:1026500014F08FEF8A838A810F900F900F90DF9193
:10266000CF911F910F91FF90EF90DF90CF90BF908F
:10267000AF909F908F907F906F905F904F903F9022
:102680002F900895CB010C94FF2CCB01642F0C9458
:10269000072DCF93DF931F92CDB7DEB790911F0127
:1026A0009923F1F0882341F182E08983A09102010E
:1026B000B0910301E0910401F09105019E012F5FAB
:1026C0003F4F41E051966C9180810E9461200097BC
:1026D000A9F4298120930E010F90DF91CF910895E5
:1026E00090910801992351F0882331F080910E01D7
:1026F000811107C081E0D9CF1982D8CF8FEF9FEF2A
:10270000EBCF90E080E0E8CF0F931F93CF93DF9360
:1027100000D0CDB7DEB720910801211108C08FEF9E
:102720000F900F90DF91CF911F910F9108958C0121
:10273000A0910201B0910301E0910401F091050123
:102740009E012F5F3F4F42E050966C9180810E9426
:102750006A20892B21F769817A8176276727762776
:10276000072E000C880B990B0E94792A20E030E09C
:102770004AEA53E40E94CF2928EB3EE142E152E4C9
:102780000E94D12820E030E040E857E40E94912BDD
:102790000E94412AF801608371838283938380E0E1
:1027A000BFCFFF920F931F93CF93DF9300D0CDB78E
:1027B000DEB78C0186E0F82EE0910401F09105016E
:1027C0009E012F5F3F4F42E06F2D80810E946A2063
:1027D00089819A81982789279827B0E0A0E0F8019D
:1027E00081939193A193B1938F01F394F394FCE0BF
:1027F000FF12E2CF0F900F90DF91CF911F910F91B9
:10280000FF900895EF92FF921F93CF93DF9300D034
:10281000CDB7DEB77C0113E1F70181919191A191D0
:10282000B1917F0199838A83E0910401F0910501C0
:102830009E012F5F3F4F42E0612F80810E94612007
:102840001E5F193149F70F900F90DF91CF911F91C3
:10285000FF90EF900895AF92BF92CF92DF92EF92E8
:10286000FF920F931F93CF93DF93CDB7DEB762979D
:102870000FB6F894DEBF0FBECDBF5C016E018DE0D8
:10288000C80ED11C86E0F60111928A95E9F71982EB
:102890001A821B821C821D821E821F821886198644
:1028A0001A861B861C86CE0101960E94D1138E01CA
:1028B0000F5F1F4F750186E0B82EF801819191914D
:1028C000A191B1918F01F701419151916191719164
:1028D0007F014E7F841B950BA60BB70BF801349735
:1028E00080839183A283B3839D878E87E0910401C7
:1028F000F0910501960142E06B2D80810E946120DC
:10290000B394B394FCE0BF12D8CF62960FB6F8949C
:10291000DEBF0FBECDBFDF91CF911F910F91FF9012
:10292000EF90DF90CF90BF90AF900895CF93DF935B
:102930001F92CDB7DEB7809108018823A1F01982DC
:10294000A0910201B0910301E0910401F091050111
:102950009E012F5F3F4F41E051966C9180810E9414
:102960006120892B11F08FEF94C0A0910201B091EA
:102970000301E0910401F09105019E012F5F3F4F9B
:1029800041E015966C9180810E946120892B59F756
:10299000A0910201B0910301E0910401F0910501C1
:1029A0009E012F5F3F4F41E014966C9180810E9401
:1029B0006120892BC1F6E0910201F091030164814D
:1029C000E0910401F0910501808190911F0199230C
:1029D00009F465C09CE099839E012F5F3F4F41E061
:1029E0000E946120892B09F0BECF62E370E080E095
:1029F00090E00E94FA2080EC89838091080180FF9A
:102A000002C080EE8983A0910201B0910301E091A0
:102A10000401F09105019E012F5F3F4F41E01496A4
:102A20006C9180810E946120892B09F09CCF80915C
:102A30000E01882391F182E08983A0910201B09177
:102A40000301E0910401F09105019E012F5F3F4FCA
:102A500041E051966C9180810E946120892B09F0A0
:102A600082CF1982A0910201B0910301E09104018B
:102A7000F09105019E012F5F3F4F41E015966C914B
:102A800080810E94612021E0892B09F420E0822FBF
:102A900081950F90DF91CF9108951982CECF94E068
:102AA00099839E012F5F3F4F41E00E946120892B57
:102AB00009F059CF80910F01811104C08091080164
:102AC00080FD41C080E48983A0910201B09103019F
:102AD000E0910401F09105019E012F5F3F4F41E01D
:102AE00014966C9180810E946120892B09F03BCF64
:102AF00062E370E080E090E00E94FA2080910E0195
:102B0000882319F181E08983A0910201B09103012A
:102B1000E0910401F09105019E012F5F3F4F41E0DC
:102B200051966C9180810E946120892B09F01BCF06
:102B3000A0910201B0910301E0910401F09105011F
:102B40002DE031E09ACF80E6BECF1982DDCFCF9362
:102B5000DF931F92CDB7DEB720910801222369F1E0
:102B6000843F21E0920769F1883E23E0920761F1FA
:102B70008A3F910559F519828981869586958695B2
:102B8000909106019817C9F0A0910201B09103013C
:102B9000E0910401F09105019E012F5F3F4F41E05C
:102BA00016966C9180810E946120892B31F4898175
:102BB000869586958695809306010F90DF91CF913B
:102BC000089588E08983D8CF80E1FCCF88E1FACFEF
:102BD000FC0180910701813079F020F0823071F0A2
:102BE00080E101C082E0808380911001882319F088
:102BF0008081880F8083089584E0F5CF88E0F3CF4B
:102C0000CF93DF931F92CDB7DEB790910801992340
:102C100041F1843051F1883059F1823059F51982EF
:102C20008981869586958695909107019817C9F0B8
:102C3000A0910201B0910301E0910401F09105011E
:102C40009E012F5F3F4F41E017966C9180810E945B
:102C50006120892B31F489818695869586958093AC
:102C600007010F90DF91CF91089588E08983D8CF35
:102C700080E1FCCF88E1FACFCF93DF931F92CDB7ED
:102C8000DEB720910801222301F18C3B910508F168
:102C900081E089839091090189819817B1F0A09111
:102CA0000201B0910301E0910401F09105019E0140
:102CB0002F5F3F4F41E012966C9180810E9461200E
:102CC000892B19F48981809309010F90DF91CF91AD
:102CD00008958236910510F082E0DBCF8A329105AB
:102CE00010F083E0D6CF8431910510F084E0D1CF8D
:102CF0000A9710F085E0CDCF86E0CBCFCF93DF935E
:102D000090911F0191111BC0909108019923B9F076
:102D1000C82FCE7FD0910D019C2390930D01C1113E
:102D200004C080911101882369F081E00E94491359
:102D3000CC2329F00E9496148111D0930D01DF91CC
:102D4000CF91089580E0DF91CF910C944913AF9219
:102D5000BF92CF92DF92EF92FF920F931F93CF9388
:102D6000DF9300D0CDB7DEB720911F01222309F4F5
:102D700071C020910801222309F46EC06A015B0131
:102D80008C01A0910201B0910301E0910401F09146
:102D900005019E012F5F3F4F42E01C966C918081A0
:102DA0000E946A20892B71F082E00F900F90DF91D2
:102DB000CF911F910F91FF90EF90DF90CF90BF9038
:102DC000AF900895E980FA80FE24EF24FE24E016F7
:102DD000F10620F4F601108285E0E7CFE0910401CE
:102DE000F091050181819281969587958E159F05B9
:102DF000B0F4A0910201B09103019E012F5F3F4FFB
:102E000041E053966C9180810E946A20892B61F683
:102E1000898184FF04C00E94961483E0C6CFA091EC
:102E20000201B0910301E0910401F09105019501C7
:102E3000402F1D966C9180810E946A20892B09F099
:102E4000B3CFC701B8010E94622C6150F6016083C4
:102E500080E0ABCF81E0A9CF84E0A7CF1F93CF93D1
:102E6000DF931F92CDB7DEB790910F01981709F449
:102E70005DC0182FE0910201F09103016481E0919F
:102E80000401F091050180819E012F5F3F4F41E0D9
:102E9000112309F44DC00E946A20892B31F08FEF75
:102EA0000F90DF91CF911F91089589818F7D898344
:102EB000A0910201B0910301E0910401F09105019C
:102EC0009E012F5F3F4F41E014966C9180810E94DC
:102ED0006120892B21F763E070E080E090E00E94A0
:102EE000FA2082E0898380911D01882311F082E815
:102EF000898380911E01882319F0898180638983E9
:102F0000A0910201B0910301E0910401F09105014B
:102F10009E012F5F3F4F41E057966C9180810E9448
:102F20006120892B09F0BBCF10930F0180E0B8CF4F
:102F30000E946A20892B09F0B2CF99818091080103
:102F400080FF22C090629983A0910201B091030199
:102F5000E0910401F09105019E012F5F3F4F41E098
:102F600014966C9180810E946120892B09F097CF83
:102F700063E070E080E090E00E94FA2080911D0103
:102F8000882321F080E8B4CF9F7DDDCF1982B1CFB7
:102F90001F93CF93DF931F92CDB7DEB790911E01A1
:102FA000981741F1882341F190E3998390910F01A3
:102FB000992319F099819260998390911D01992329
:102FC00019F0998190689983182FA0910201B0910E
:102FD0000301E0910401F09105019E012F5F3F4F35
:102FE00041E057966C9180810E946120892B31F4D9
:102FF00010931E0180E003C01982D8CF8FEF0F908D
:10300000DF91CF911F9108950F931F93CF93DF937B
:1030100000D0CDB7DEB78932910510F08FEF1FC019
:103020008C01892B19F580E00E94C817198287E06E
:103030008A83A0910201B0910301E0910401F09113
:1030400005019E012F5F3F4F42E055966C918081B4
:103050000E946120892B11F71092110180E00F90DE
:103060000F90DF91CF911F910F91089581E00E9401
:10307000C81780E289830130110561F51A8285E065
:1030800090E00E943C168A8120E4829FC0011124B6
:1030900087608A83A0910201B0910301E09104014D
:1030A000F09105019E012F5F3F4F42E055966C91D4
:1030B00080810E946120892B09F0B0CF88E0809345
:1030C000080110920A0181E08093110180E00E94C2
:1030D0007E16C4CF0630110518F481E08A83CFCF65
:1030E0000531110528F482E08A838AE090E0C9CF97
:1030F00083E08A8384E190E0C4CF0F931F93CF9342
:10310000DF931F92CDB7DEB720910801222381F013
:1031100020911F0121110CC08C0180911101882385
:1031200089F0C8010197889748F4C8010E940418E3
:103130000F90DF91CF911F910F91089590E080E063
:103140000E940418B801093E134010F068EE73E0C5
:103150006430710510F464E070E008EE13E0C8011B
:103160000E94622C61506983A0910201B091030119
:10317000E0910401F09105019E012F5F3F4F41E076
:1031800011966C9180810E946120892B89F669815A
:1031900070E06F5F7F4FC8010E94762C70930C0126
:1031A00060930B01CB01969587950E943C16C0CF8A
:1031B0001F93CF93DF931F92CDB7DEB7182F807781
:1031C00019F081E0898303C01123D9F01982A091FD
:1031D0000201B0910301E0910401F09105019E010B
:1031E0002F5F3F4F41E055966C9180810E94612096
:1031F000892B49F0109208010F90DF91CF911F9118
:10320000089580E4DFCF89818F7B80930A0116FFC8
:1032100034C0198215FD03C089818260898314FD41
:1032200003C089818160898313FD03C0898188631C
:103230008983A0910201B0910301E0910401F09112
:1032400005019E012F5F3F4F41E056966C918081B2
:103250000E946120892B71F6812F877F19F080E011
:103260000E94C817109308011092110162E370E0E8
:1032700080E090E00E94FA20BFCF84E08983CACF2B
:103280001F93CF93DF9300D000D000D0CDB7DEB72F
:103290001FEFDC011C9380E88983A0910201B091AB
:1032A0000301E0910401F09105019E012F5F3F4F62
:1032B00041E055966C9180810E946120892B09F034
:1032C00060C064E670E080E090E00E94FA2019821D
:1032D000A0910201B0910301E0910401F091050178
:1032E0009E012F5F3F4F41E055966C9180810E9477
:1032F0006120892B09F045C0109308011093060145
:1033000010930701109309018FEF9FEF90930C0129
:1033100080930B0110930D0110930F0181E08093B6
:103320000A0180931D0110921E0110921201109249
:103330001101E3E1F1E08AE0DF011D928A95E9F7EE
:1033400010921F011092200110922201109221016F
:1033500080ED97E00E94A71582E00E94001684E6A7
:1033600090E00E947D188AE290E00E943C1680E086
:103370000E947E1680E00E942E17811102C00E94DA
:10338000D81826960FB6F894DEBF0FBECDBFDF91DA
:10339000CF911F910895EF92FF920F931F93CF93B8
:1033A000DF9300D0CDB7DEB74115510591F12091E3
:1033B0000801222371F199838A83E0910401F0913D
:1033C0000501860F972F911D208531852817390714
:1033D00000F17A018B01A0910201B09103019E01DD
:1033E0002F5F3F4F42E05B966C9180810E9461208D
:1033F000892B79F4A0910201B0910301E0910401BD
:10340000F09105019701402F58966C9180810E94A0
:1034100061200F900F90DF91CF911F910F91FF903E
:10342000EF900895EF92FF920F931F93CF93DF9346
:1034300000D0CDB7DEB74115510591F120910801BB
:10344000222371F199838A83E0910401F0910501AF
:10345000860F972F911D208531852817390700F198
:103460007A018B01A0910201B09103019E012F5FAF
:103470003F4F42E05B966C9180810E946120892BD6
:1034800079F4A0910201B0910301E0910401F0915F
:1034900005019701402F58966C9180810E946A2007
:1034A0000F900F90DF91CF911F910F91FF90EF90B0
:1034B00008954F925F926F927F928F929F92AF92F8
:1034C000BF92CF92DF92EF92FF920F931F93CF9311
:1034D000DF93CDB7DEB7A2970FB6F894DEBF0FBE6D
:1034E000CDBFE0912001E11129C06115710531F1D5
:1034F0004901652E742E5B016C01F12CE12CEC145A
:10350000FD0498F169A27AA2A0910201B091030191
:10351000E0910401F09105019E012F5D3F4F42E0D3
:103520005D966C9180810E946120892B39F481E045
:10353000809320019092220180922101A2960FB6E1
:10354000F894DEBF0FBECDBFDF91CF911F910F91D9
:10355000FF90EF90DF90CF90BF90AF909F908F90B3
:103560007F906F905F904F900895C6018E199F09CC
:103570008131910510F080E190E0DE01119610E0BC
:1035800000E02D0195012E0D3F1DF901E00FF11F07
:10359000E491ED930F5F1F4F08171907B1F7A201D0
:1035A000B801C7010E94CB19AE014F5E5F4FB80151
:1035B000C7010E94121AA801BE016F5E7F4FC201AF
:1035C0000E94EB2C892B09F0B9CFE00EF11E97CFAA
:1035D000CF93DF931F92CDB7DEB790911F0198175D
:1035E00031F1882341F180912001882301F180E0AD
:1035F0000E94491380E00E942E1780912101909132
:1036000022010E947D181982E0910401F0910501C8
:103610009E012F5F3F4F41E063E280810E94612065
:1036200081E080931F010E9449130E9496140F901D
:10363000DF91CF91089580E00E94491380910D01A0
:103640008983E0910401F09105019E012F5F3F4FB6
:1036500041E063E280810E94612010921F01E5CF6A
:10366000CF93DF93CDB7DEB729970FB6F894DEBFBF
:103670000FBECDBF89E0EFE2F1E0DE0111960190CF
:103680000D928A95E1F7AE014F5F5F4F69E070E000
:1036900088EB94E00E94CB1929960FB6F894DEBF10
:1036A0000FBECDBFDF91CF91089528EC30E040E010
:1036B00054E066E171E086EF9BE00C94591A6F923A
:1036C0007F928F92CF92DF92EF920F931F93CF93BF
:1036D000DF93CDB7DEB72C970FB6F894DEBF0FBEE1
:1036E000CDBF8C018091380190913901A0913A01B0
:1036F0008C839D83AE8380913B0190913C01A0918E
:103700003D0189839A83AB8360903E0170903F01B5
:1037100080904001C0904101D0904201E09043016F
:10372000980123703327E4E0F0E0EC0FFD1FE20F77
:10373000F31F80818A87C80143E0969587954A9553
:10374000E1F783709927E4E0F0E0EC0FFD1FE80F4C
:10375000F91F40814B87F80156E0F695E7955A9599
:10376000E1F7E370FF27A4E0B0E0AC0FBD1FAE0FA0
:10377000BF1F4C914C8741E050E04C0F5D1F240F60
:10378000351FD9012C912F83840F951FDC018C915B
:103790008887E40FF51F80818987AE01465F5F4F00
:1037A00063E070E086E294E00E94CB19AE01495FCD
:1037B0005F4F63E070E08AE294E00E94CB196A8672
:1037C0007B868C86CF82D886E98602FF04C087E399
:1037D0008A8787E28F8305FF04C087E58B8787E4AC
:1037E000888710FF04C087E78C8787E68987AE014A
:1037F000465F5F4F63E070E080E494E00E94CB1985
:10380000AE01495F5F4F63E070E081E394E00E94A6
:10381000CB191093AD030093AC032C960FB6F8941C
:10382000DEBF0FBECDBFDF91CF911F910F91EF9003
:10383000DF90CF908F907F906F9008950F931F939C
:10384000CF93DF93CDB7DEB764970FB6F894DEBFA2
:103850000FBECDBF2CE0E4E4F1E0DE011196019053
:103860000D922A95E1F7893C910500F58C011D86A2
:1038700088EC90E0B8010E94622C615071096E875B
:10388000AE01435F5F4F62E070E086E192E00E942C
:10389000CB19AE014F5F5F4F6CE070E081EC9AE0B6
:1038A0000E94CB191093B1030093B00364960FB636
:1038B000F894DEBF0FBECDBFDF91CF911F910F9166
:1038C00008958F929F92AF92BF92FF920F931F9392
:1038D000CF93DF9300D000D01F92CDB7DEB7982FE3
:1038E0009770E1F0613496E07907C0F4F82E90E02B
:1038F00080E00E94772A20E030E048E453E40E9410
:10390000CF294B015C01CE0105960E94E8158D81FF
:10391000843009F481C020F48230C1F08FEF6DC093
:10392000883009F48AC08031C9F720E030E040E0F7
:1039300055E4C501B4010E94912B0E94482A162F1C
:10394000072F20E030E040EC54E410C020E030E0ED
:1039500040E856E4C501B4010E94912B0E94482A18
:10396000162F072F20E030E040E456E4C501B401F3
:103970000E94912B0E94482A09831A837B836C83BF
:10398000F0FE12C0AE014F5F5F4F62E070E084ED69
:1039900091E00E94CB19AE014D5F5F4F62E070E095
:1039A00084E291E00E94CB19F1FE12C0AE014F5F9C
:1039B0005F4F62E070E088ED91E00E94CB19AE01AC
:1039C0004D5F5F4F62E070E088E291E00E94CB19AA
:1039D000F2FE12C0AE014F5F5F4F62E070E08CED0F
:1039E00091E00E94CB19AE014D5F5F4F62E070E045
:1039F0008CE291E00E94CB1980E00F900F900F9025
:103A00000F900F90DF91CF911F910F91FF90BF907A
:103A1000AF909F908F90089520E030E040E056E412
:103A2000C501B4010E94912B0E94482A162F072F2E
:103A300020E030E040EC55E499CF20E030E040E871
:103A400055E4C501B4010E94912B0E94482A162F0B
:103A5000072F20E030E040E455E488CFCF93DF9398
:103A60001F92CDB7DEB780FD19C0198281FF03C058
:103A700099819C60998382FF03C0898183608983D7
:103A8000AE014F5F5F4F61E070E088E491E00E941B
:103A9000CB1980E00F90DF91CF91089590E3998347
:103AA000E5CFCF93DF931F92CDB7DEB7882399F090
:103AB000853008F084E081508983AE014F5F5F4F0D
:103AC00061E070E08FE491E00E94CB1980E00F90FC
:103AD000DF91CF91089581E0EECFCF93DF9300D0B7
:103AE000CDB7DEB765E070E00E94622C79836A830F
:103AF000AE014F5F5F4F62E070E08EED91E00E949B
:103B0000CB1980E00F900F90DF91CF910895CF9364
:103B1000DF9300D0CDB7DEB765E070E00E94622C85
:103B200079836A83AE014F5F5F4F62E070E08AED98
:103B300091E00E94CB1980E00F900F90DF91CF9120
:103B400008950F931F93CF93DF9300D000D0CDB78C
:103B5000DEB78A0128EE33E040E050E00E94AC2C52
:103B6000D8010E94D12C99838A837B836C83AE0118
:103B70004F5F5F4F64E070E08CE591E00E94CB19ED
:103B800080E00F900F900F900F90DF91CF911F91D9
:103B90000F910895CF93DF9300D0CDB7DEB765E0E6
:103BA00070E00E94622C79836A83AE014F5F5F4FA1
:103BB00062E070E08AE591E00E94CB1980E00F900E
:103BC0000F90DF91CF910895CF93DF9300D0CDB7C1
:103BD000DEB765E070E00E94622C79836A83AE01F3
:103BE0004F5F5F4F62E070E088E591E00E94CB1983
:103BF00080E00F900F90DF91CF910895CF93DF93E6
:103C0000CDB7DEB729970FB6F894DEBF0FBECDBF94
:103C1000882359F00E94301B29960FB6F894DEBF16
:103C20000FBECDBFDF91CF91089589E0E0E5F1E0CF
:103C3000DE01119601900D928A95E1F7AE014F5F7A
:103C40005F4F69E070E088EB94E00E94CB19E4CF0D
:103C5000CF93DF9300D000D0CDB7DEB78823D1F06B
:103C600080EC898382EC8A8384EC8B8386EC8C8362
:103C7000AE014F5F5F4F64E070E088E99AE00E9418
:103C8000CB190E9496140F900F900F900F90DF9118
:103C9000CF91089544E050E06BE870E0CE010196CA
:103CA0000E94F82CE5CFCF93DF9300D000D0CDB7A2
:103CB000DEB78823D1F080E2898388E28A8380E3BB
:103CC0008B8388E38C83AE014F5F5F4F64E070E0CD
:103CD0008EE99AE00E94CB190E9496140F900F90E3
:103CE0000F900F90DF91CF91089544E050E063EA88
:103CF00070E0CE0101960E94F82CE5CFAF92BF9202
:103D0000CF92DF92EF92FF920F931F93CF93DF93A7
:103D1000CDB7DEB72A970FB6F894DEBF0FBECDBF82
:103D20008C0182E089838AEC8A8383EE8B8389E02D
:103D30008C83AE014F5F5F4F64E070E088E690E0F7
:103D40000E94CB1983EA8983580190E4A922BB24FD
:103D500006FFCBC080EC8A8388EC8B8382EC8C835B
:103D6000680180E8C82281E0D822C114D10409F496
:103D7000BFC084EC8D838CEC8E8386EC8F8383EACA
:103D8000888789878A87AE014F5F5F4F6AE070E05E
:103D900087EA9AE00E94CB19780193E0E922FF2498
:103DA00080E2E114F10409F488ED8983AE014F5FEC
:103DB0005F4F61E070E086EB9AE00E94CB1905FF4F
:103DC0009BC00E94301BC114D10499F010FF98C011
:103DD00082EB89838BE88A8386EB8B838BE98C83E8
:103DE000AE014F5F5F4F64E070E082EA9AE00E94AC
:103DF000CB1900FF8DC088EF8983AE014F5F5F4F05
:103E000061E070E080EB98E00E94CB196AEF70E00F
:103E100087E00E94611C87E00E942E1D81E00E94C5
:103E2000511D84E690E00E946D1D84EF91E00E9498
:103E3000871D48EC50E069E073EE8AEC92E00E9446
:103E4000A11D88E290E00E94CA1D8AE090E00E94D5
:103E5000E41D89ED01FF88ED8983AE014F5F5F4F5F
:103E600061E070E08DE397E00E94CB1981E002FFF2
:103E700080E00E94281E81E004FF80E00E94531E23
:103E8000C80188609093AF038093AE030E9496149C
:103E9000AB2809F049C01092B203CD2829F08091D7
:103EA000B2038A5F8093B20304711127012B29F0BA
:103EB0008091B203805F8093B203EF2829F0809154
:103EC000B2038C5F8093B2032A960FB6F894DEBFDC
:103ED0000FBECDBFDF91CF911F910F91FF90EF905B
:103EE000DF90CF90BF90AF9008958A838B8337CFB8
:103EF00083EA8D838E8342CF80E00E94FE1D63CFD4
:103F000080EB898380E88A8384EB8B8380E967CFA9
:103F100088ED8983AE014F5F5F4F61E070E080EB19
:103F200098E00E94CB1995CF86E08093B203B5CF7D
:103F30006F927F928F929F92AF92BF92CF92DF92B9
:103F4000EF92FF920F931F93CF93DF93CDB7DEB71E
:103F5000A0970FB6F894DEBF0FBECDBF5C014B013A
:103F60003A016901A701F801118210828091B20320
:103F7000BE016F5F7F4F90E00E94A716811186C03F
:103F80002091AE033091AF03A90144715527452B11
:103F9000D9F0FE013196D301CE0141967080418166
:103FA00050E070E060E0BA0155274427772973801C
:103FB0004729728057294D935D936D937D93349675
:103FC0008E179F0759F780E126FF1DC0A1E0B0E0E2
:103FD000AC0FBD1FA80FB11DF401B4016A5F7F4F84
:103FE0004C9111969C911197542F492F41935193C5
:103FF00012966E177F07A1F78A5FF8014081518101
:10400000486051834083A90140785170452BE9F005
:10401000A1E0B0E0AC0FBD1FA80FB11DF501B501C7
:104020006A5F7F4F4C9111969C911197542F492FA5
:104030004193519312966E177F07A1F78A5FF8019B
:104040004081518140675183408323703327232B64
:10405000C1F0E1E0F0E0EC0FFD1FE80FF11D818100
:1040600080FF0FC06381862F869586958695877021
:1040700067706F5FE091AA03F091AB03309709F08E
:104080000995F6011082118212821382A0960FB652
:10409000F894DEBF0FBECDBFDF91CF911F910F917E
:1040A000FF90EF90DF90CF90BF90AF909F908F9058
:1040B0007F906F9008959093AB038093AA0380E064
:1040C00008950E946F1291E0892790E09195819563
:1040D000910908950F931F93009100011091010120
:1040E0000E949E1221E030E0882311F030E020E0B1
:1040F00088279927821B930B1F910F9108951F9278
:104100000F920FB60F9211242F933F938F939F938B
:10411000AF93BF938091B4039091B503A091B60380
:10412000B091B7033091B30323E0230F2D3758F537
:104130000196A11DB11D2093B3038093B403909306
:10414000B503A093B603B093B7038091B8039091E1
:10415000B903A091BA03B091BB030196A11DB11D93
:104160008093B8039093B903A093BA03B093BB03B1
:10417000BF91AF919F918F913F912F910F900FBE63
:104180000F901F90189526E8230F0296A11DB11DD0
:10419000D2CF2FB7F8946091B4037091B50380919A
:1041A000B6039091B7032FBF08953FB7F89480915D
:1041B000B8039091B903A091BA03B091BB0326B59F
:1041C000A89B05C02F3F19F00196A11DB11D3FBF4F
:1041D000BA2FA92F982F8827BC01CD01620F711D1E
:1041E000811D911D42E0660F771F881F991F4A9518
:1041F000D1F70895CF92DF92EF92FF92CF93DF93A2
:104200006B017C010E94D520EB01C114D104E104B3
:10421000F10439F4DF91CF91FF90EF90DF90CF90D0
:1042200008950E94A3280E94D5206C1B7D0B683E38
:10423000734058F381E0C81AD108E108F108C85169
:10424000DC4FE3CF789484B5826084BD84B581600F
:1042500084BD85B5826085BD85B5816085BDEEE68E
:10426000F0E0808181608083E1E8F0E0108280816D
:1042700082608083808181608083E0E8F0E08081DB
:1042800081608083E1E9F0E08081826080838081C9
:1042900081608083E0E9F0E0808181608083E1ECEF
:1042A000F0E080818460808380818260808380816F
:1042B00081608083E3ECF0E0808181608083E0ECCA
:1042C000F0E0808182608083E2ECF0E080818160B8
:1042D0008083EAE7F0E0808184608083808182606F
:1042E000808380818160808380818068808308955D
:1042F00081508F3008F047C0E82FF0E0EE57FE4DB8
:104300000C94CB2C9F21A321912197219B21C32188
:10431000C321C321A621AC21B021B421BA21C321DC
:10432000BE21809180008F778093800008958091D6
:1043300080008F7DF9CF80918000877FF5CF84B595
:104340008F7784BD089584B58F7DFBCF80919000D9
:104350008F77809390000895809190008F7DF9CFA2
:1043600080919000877FF5CF8091C0008F778093F8
:10437000C00008958091C0008F7DF9CF8091C20068
:10438000877F8093C2000895CF93DF9390E0FC0174
:10439000E65DF24F2491885B924FFC018491882363
:1043A000C9F090E0880F991FFC01EC58F24FA591DD
:1043B000B491FC01EA59F24FC591D49161110DC03D
:1043C0009FB7F8948C91209582238C938881282321
:1043D00028839FBFDF91CF910895623051F49FB73A
:1043E000F8943C91822F809583238C93E8812E2B27
:1043F000EFCF8FB7F894EC912E2B2C938FBFEACF91
:104400001F93CF93DF93282F30E0F901E45FF24F41
:104410008491F901E65DF24FD491F901E85BF24F26
:10442000C491CC23A9F0162F81110E947821EC2F82
:10443000F0E0EE0FFF1FEA59F24FA591B4918FB74C
:10444000F894EC91111108C0D095DE23DC938FBF56
:10445000DF91CF911F910895DE2BF8CFCF93DF939B
:104460001F92CDB7DEB76983DC01ED91FC9102802C
:10447000F381E02D41E050E0BE016F5F7F4F099571
:104480000F90DF91CF910895CF93DF93EC018C854E
:104490009D8597FF05C082E00E94E9259D878C8756
:1044A0008C859D85DF91CF91089583E00C9413282E
:1044B000FC018485958597FD06C082E00E949825C1
:1044C00090E00196089582E00E94982590E008957A
:1044D000FC018485958597FD05C02FEF3FEF35875B
:1044E0002487089582E00C94E925CF93DF93EC01B3
:1044F00080912C01882331F083E00E941A2618163F
:10450000190634F081E090E09B838A8380E090E09C
:10451000DF91CF910895FC0190819E5F908342E4EA
:1045200050E062E87DE080E80C94B026FC018181D7
:104530009081913A61F4813209F04DC047E050E03A
:1045400065E271E080E00E94B02681E0089591323A
:1045500009F041C0803241F567E070E085E291E00A
:104560000E94D6268091250190912601A0912701D5
:10457000B0912801803B9440A105B105D9F4809108
:104580002C0180FD17C087E797E79093010880937F
:10459000000888E19BE00FB6F894A895809360002E
:1045A0000FBE90936000D1CF823279F682818093E2
:1045B0002C01D8CF0FB6F894A8958091600088613F
:1045C00080936000109260000FBEA89510920108C1
:1045D00010920008BACF80E008952FEF3FEFFC0162
:1045E000358724870895ECEBF3E01382128288EE7E
:1045F00093E0A0E0B0E084839583A683B78386E749
:1046000092E0918380838FEF9FEF95878487089551
:10461000FB0101900020E9F73197AF01461B570BD2
:10462000DC01ED91FC910280F381E02D099461158C
:10463000710511F00C94082390E080E00895DC01EE
:10464000ED91FC910190F081E02D09940F931F935F
:10465000CF93DF93EC016DE00E941F238C016AE091
:10466000CE010E941F23800F911FDF91CF911F91D8
:104670000F9108950F931F93CF93DF938C01D0E098
:10468000C0E06115710519F00E940823EC01C80112
:104690000E9426238C0F9D1FDF91CF911F910F91B8
:1046A00008958F929F92AF92BF92CF92DF92EF9236
:1046B000FF920F931F93CF93DF93CDB7DEB7A197F0
:1046C0000FB6F894DEBF0FBECDBF6C01142FE52FDF
:1046D000CB01022F19A2223008F40AE07E0121E268
:1046E000E20EF11C802E912CB12CA12C612F7E2F7B
:1046F000A50194010E948A2C029F101911241A30DE
:104700003CF5105DF70112937F01122FE32FCA01D0
:10471000232B242B252B51F790E080E0E114F104AA
:1047200021F0B701C6010E940823A1960FB6F894A4
:10473000DEBF0FBECDBFDF91CF911F910F91FF90D4
:10474000EF90DF90CF90BF90AF909F908F900895A3
:10475000195CD8CFCF92DF92EF92FF920F931F9305
:10476000CF93DF932115310581F4DC01ED91FC91AC
:104770000190F081E02D642FDF91CF911F910F9177
:10478000FF90EF90DF90CF9009942A30310501F52A
:104790002AE077FF1DC06A017B01EC016DE20E94F7
:1047A0001F238C0144275527BA014C195D096E0956
:1047B0007F092AE0CE010E945123800F911FDF91D3
:1047C000CF911F910F91FF90EF90DF90CF900895C0
:1047D000DF91CF911F910F91FF90EF90DF90CF90DD
:1047E0000C9451239A01AB01770F660B770B0C9455
:1047F000AA230F931F93CF93DF93EC010E94F22320
:104800008C01CE010E942623800F911FDF91CF9152
:104810001F910F9108950F931F93CF93DF93EC0196
:104820000E94AA238C01CE010E942623800F911F93
:10483000DF91CF911F910F9108952115310541F41A
:10484000DC01ED91FC910190F081E02D642F099441
:104850000C9451239A01462F50E070E060E00C94D4
:104860001D240F931F93CF93DF93EC010E942A2402
:104870008C01CE010E942623800F911FDF91CF91E2
:104880001F910F9108952F923F924F925F926F92D6
:104890007F928F929F92AF92BF92CF92DF92EF92D0
:1048A000FF921F93CF93DF93EC016A017B01722E7D
:1048B000AB019601CB01B6010E94482C62E872E080
:1048C000811126C046015701E894B7F82FEF3FEF5A
:1048D0004FE75FE7C501B4010E94482C81110CC06D
:1048E0002FEF3FEF4FE75FE7C501B4010E94CA29F0
:1048F00066E872E0181664F02FEF3FEF4FE75FE4D1
:10490000C701B6010E94842B1816B4F46AE872E05D
:10491000CE01DF91CF911F91FF90EF90DF90CF906C
:10492000BF90AF909F908F907F906F905F904F90CF
:104930003F902F900C9408232FEF3FEF4FE75FEC51
:10494000C701B6010E94CA2987FDE0CF20E030E010
:10495000A901C701B6010E94CA29312C212C87FF69
:1049600009C06DE2CE010E941F231C01F7FAF094EA
:10497000F7F8F09410E060E070E080E09FE37116DB
:1049800041F020E030E040E251E40E94CF291F5F77
:10499000F6CFA70196010E94D1282B013C010E946D
:1049A000482A4B015C012AE0BC01A401CE010E940F
:1049B00051237C01E20CF31C1123C1F1C501B401A8
:1049C0000E94772A9B01AC01C301B2010E94D0284A
:1049D0004B015C016DEA71E0CE010E940823E80EF4
:1049E000F91E115018F120E030E040E251E4C50119
:1049F000B4010E94912B2B013C010E94412A4B01E2
:104A00004AE050E0CE010E94F223E80EF91EB40104
:104A1000990C880B990B0E94792A9B01AC01C30168
:104A2000B2010E94D0284B015C01DBCFC701DF91AE
:104A3000CF911F91FF90EF90DF90CF90BF90AF90FC
:104A40009F908F907F906F905F904F903F902F90AE
:104A500008950C9443244091100450911104209126
:104A60000E0430910F0442175307B4F49091E800FC
:104A70009570E1F39091E80092FD19C08093F100E8
:104A8000809110049091110401968F739927892BBE
:104A900019F48EEF8093E800809110049091110436
:104AA0000196909311048093100481E0089580E0B2
:104AB0000895EF92FF920F931F93CF93DF93182FD8
:104AC000E92E062F81E0860F880F0E942B2583E0B8
:104AD0000E942B25F12EC12FDE2DFE0184910E9414
:104AE0002B25182F80E00E942B25812329F0219669
:104AF0009C2F9F19901788F3DF91CF911F910F91F1
:104B0000FF90EF900895615030F02091F100FC018A
:104B100020830196F8CF289884E6809313040895A3
:104B20002FB7FC012083F89467706093E900089523
:104B3000CF93DF931F92CDB7DEB7682FCE010196DA
:104B40000E9490258091F20099819FBF0F90DF9184
:104B5000CF910895EF92FF920F931F93CF93DF931E
:104B60001F92CDB7DEB790911204992379F157FDCA
:104B70002DC08A017B01682FCE0101960E949025ED
:104B80008091F20090E0081719070CF4C801282F53
:104B9000F70144E6215038F02898409313043091EF
:104BA000F1003193F7CF009739F02091F2002111F5
:104BB00003C02BE62093E80029812FBF0F90DF91DF
:104BC000CF911F910F91FF90EF9008958FEF9FEF7E
:104BD000F5CFCF93DF931F92CDB7DEB741E050E022
:104BE000BE016F5F7F4F0E94AA25019731F4898132
:104BF00090E00F90DF91CF9108958FEF9FEFF9CF65
:104C0000CF93DF931F92CDB7DEB7682FCE01019609
:104C10000E9490259091E800892F807295FF04C032
:104C20009091F20080E4891B99819FBF0F90DF91E2
:104C3000CF9108956F927F928F929F92AF92BF9281
:104C4000CF92DF92EF92FF920F931F93CF93DF9358
:104C50001F92CDB7DEB7A82E6B01B42E052F809121
:104C60001204811112C08FEF9FEF0F90DF91CF914F
:104C70001F910F91FF90EF90DF90CF90BF90AF907A
:104C80009F908F907F906F900895E42EF52E8AEF7D
:104C9000982E8A2D8072882E9AE3792E8A2D807420
:104CA000682EE114F10409F449C08A2D0E940026FF
:104CB000182F81110AC09A949920A9F261E070E03E
:104CC00080E090E00E94FA20ECCF8E151F0411F0D6
:104CD0000CF01E2D6A2DCE0101960E949025809128
:104CE000E80085FD03C089818FBFDBCF812F90E075
:104CF000E81AF90A882029F01150A0F01092F1006A
:104D0000FBCFF601A7FC0AC0115050F0219120936F
:104D1000F100FACF24912093F10031961150D0F791
:104D2000C80ED91E8091E80085FF05C0E114F1048A
:104D3000D1F66620C1F27092E800D5CF5D9884E686
:104D4000809314048B2D902F90CF1092E900109235
:104D500011041092100490930F0480930E04089590
:104D6000DF92EF92FF920F931F93CF93DF93D82E92
:104D70008A01EB017B01E40EF51ECE15DF0559F02B
:104D8000D7FE12C0FE0184910E942B25219681112D
:104D9000F4CF0FEF1FEFC801DF91CF911F910F915B
:104DA000FF90EF90DF9008958881EECFCF93DF934F
:104DB000EB012091E80022FFFCCF6C2F0E9483259D
:104DC0008BEF8093E800CE01DF91CF910895CF93D0
:104DD000DF931F92CDB7DEB71982CE0101960E94F4
:104DE0008B22CE0101960E94A428898190E00F9029
:104DF000DF91CF9108951F920F920FB60F92112459
:104E0000EF92FF921F932F933F934F935F936F9374
:104E10007F938F939F93AF93BF93EF93FF93CF9322
:104E2000DF93CDB7DEB76197DEBFCDBF1092E9004B
:104E30008091E80083FF1DC068E0CE010A960E94C1
:104E4000832582EF8093E8009A8597FF2EC080919A
:104E5000E80080FFFCCF892F807609F0D0C08B85D9
:104E6000811127C01092F1001092F1008EEF809313
:104E7000E80061960FB6F894DEBF0FBECDBFDF919C
:104E8000CF91FF91EF91BF91AF919F918F917F91C2
:104E90006F915F914F913F912F911F91FF90EF90F4
:104EA0000F900FBE0F901F9018958EEF8093E80023
:104EB000D2CF282F2D7F2130C9F2853049F480913F
:104EC000E80080FFFCCF8C8580688093E300CECF24
:104ED000863009F06BC01D85E888F988123039F5F5
:104EE00090E080E00E94A5260E94E7261F8299E0BC
:104EF00099831A8391E09E8390E898879AEF998727
:104F00002091100430911104275F3F4F3C832B8385
:104F10008D83C7010E94A52649E050E0BE016F5F66
:104F20007F4F80E00E94B0260E94E7269FCFC701F6
:104F30000E94A526123259F482E290E00E94AF2826
:104F4000892B09F093CF81E28093EB0092CF11304F
:104F5000A9F488899989089711F410930D04809118
:104F60000D046BED7DE0882311F069EC7DE0FB0121
:104F7000449150E080E80E94B02678CF133019F7B2
:104F80008C85882381F0823041F464E189EF9DE0D3
:104F90000E94592581116ACFD6CF8130A1F66BE0EE
:104FA0008DEE9DE0F5CF6EE07EE0E1CF873059F2E7
:104FB000883021F481E08093F10058CF893009F0E6
:104FC00055CF937009F0BFCFE5ECFDE081E031E013
:104FD00096E38093E9003093EB0024912093EC005A
:104FE0009093ED008F5F3196853099F78EE780932F
:104FF000EA001092EA008C858093120437CF8889EA
:1050000099890E94A5268E85811105C0CE010A9638
:105010000E949622BFCF823009F095CFCE010A962A
:105020000E94B628B7CF8093E9008091F2008823D0
:1050300019F08AE38093E80008951F920F920FB64B
:105040000F9211242F933F934F935F936F937F930E
:105050008F939F93AF93BF93EF93FF938091E10062
:105060001092E10083FF0FC01092E90091E090934D
:10507000EB001092EC0092E39093ED00109212047A
:1050800098E09093F00082FF1BC083E00E941328F9
:1050900080911404882341F08091140481508093FE
:1050A0001404811101C05D9A80911304882341F09A
:1050B00080911304815080931304811101C0289AB8
:1050C000FF91EF91BF91AF919F918F917F916F91E0
:1050D0005F914F913F912F910F900FBE0F901F90B6
:1050E00018951092120481E08093D70080EA809393
:1050F000D80082E189BD09B400FEFDCF61E070E017
:1051000080E090E00E94FA2080E98093D8008CE053
:105110008093E2001092E000559A209A0895089535
:105120000E9422210E948F288CE094E00E94712826
:105130000E94FB07C0E0D0E00E94390D2097E1F308
:105140000E940000F9CF0895FC0190819F5F908339
:1051500049E150E062E17EE080E80C94B02642E252
:1051600050E06BE27EE080E80C94B026FC01918177
:105170008081813A31F49D7F81E0913009F080E0B7
:1051800008958132E1F79B3029F4828180932E01CA
:1051900081E008959A3099F7828180932D01F8CFAC
:1051A0005058BB27AA270E94E8280C944A2B0E943B
:1051B0003C2B38F00E94432B20F039F49F3F19F428
:1051C00026F40C94FE2A0EF4E095E7FB0C94F82AE2
:1051D000E92F0E945B2B58F3BA1762077307840705
:1051E000950720F079F4A6F50C947D2B0EF4E0954C
:1051F0000B2EBA2FA02D0B01B90190010C01CA0191
:10520000A0011124FF27591B99F0593F50F4503E3B
:1052100068F11A16F040A22F232F342F4427585F2D
:10522000F3CF469537952795A795F0405395C9F745
:105230007EF41F16BA0B620B730B840BBAF09150FD
:10524000A1F0FF0FBB1F661F771F881FC2F70EC09C
:10525000BA0F621F731F841F48F48795779567956F
:10526000B795F7959E3F08F0B0CF9395880F08F05B
:105270009927EE0F9795879508959F939F77EEE373
:1052800089379E0728F4ECEAF0E00E94282B0CC036
:105290000E94B42A9058A2EA2AED3FE049EC5FE36D
:1052A0000E94E8280E944A2B0F9007FC905808950E
:1052B0000E943C2B60F080E891E009F49EEF0E9490
:1052C000432B28F040E851E071F45EEF0CC00C94E1
:1052D000FE2A0C947D2BE92FE0780E945B2B40F393
:1052E000092E052AB1F3261737074807590738F062
:1052F0000E2E07F8E02569F0E025E0640AC0EF63B0
:1053000007F8009407FADB01B9019D01DC01CA012D
:10531000AD01EF930E94E6290E944A2B0E949B292F
:105320005F91552339F02BED3FE049E450FD49EC06
:105330000C94D1280895DF93DD27B92FBF7740E87B
:105340005FE31616170648075B0718F4D92F0E946B
:10535000892B9F938F937F936F930E94442CE0EC53
:10536000F0E00E94012B0E944A2B2F913F914F9118
:105370005F910E94A42BDD2351F09058A2EA2AED00
:105380003FE049EC5FE3D0785D270E94E828DF9199
:105390000C944A2B0E94D42A08F481E008950E94BC
:1053A000E3290C944A2B0E94432B58F00E943C2B7B
:1053B00040F029F45F3F29F00C94F82A51110C9425
:1053C0007E2B0C94FE2A0E945B2B68F39923B1F389
:1053D000552391F3951B550BBB27AA27621773071B
:1053E000840738F09F5F5F4F220F331F441FAA1FAF
:1053F000A9F335D00E2E3AF0E0E832D0915050406B
:10540000E695001CCAF72BD0FE2F29D0660F771F18
:10541000881FBB1F261737074807AB07B0E809F0FE
:10542000BB0B802DBF01FF2793585F4F3AF09E3F83
:10543000510578F00C94F82A0C947E2B5F3FE4F32E
:10544000983ED4F3869577956795B795F7959F5FC6
:10545000C9F7880F911D9695879597F90895E1E012
:10546000660F771F881FBB1F621773078407BA0771
:1054700020F0621B730B840BBA0BEE1F88F7E095CC
:1054800008950E94482A6894B1110C947E2B0895C7
:105490000E94632B88F09F5798F0B92F9927B75136
:1054A000B0F0E1F0660F771F881F991F1AF0BA95C8
:1054B000C9F714C0B13091F00E947D2BB1E008957E
:1054C0000C947D2B672F782F8827B85F39F0B93F70
:1054D000CCF3869577956795B395D9F73EF490957B
:1054E0008095709561957F4F8F4F9F4F0895E894F9
:1054F00009C097FB3EF490958095709561957F4F1C
:105500008F4F9F4F9923A9F0F92F96E9BB279395C9
:10551000F695879577956795B795F111F8CFFAF4D9
:10552000BB0F11F460FF1BC06F5F7F4F8F4F9F4F0A
:1055300016C0882311F096E911C0772321F09EE868
:10554000872F762F05C0662371F096E8862F70E0CE
:1055500060E02AF09A95660F771F881FDAF7880FA8
:105560009695879597F90895DF93CF931F930F939F
:105570008B01EC01EDEEF0E00E94012B0E944A2B22
:105580009801AE018B01EC0160E070E080E89FE3E0
:105590000E94D0280E94042C9801AE010F911F9107
:1055A000CF91DF910C94A42B990F0008550FAA0BF3
:1055B000E0E8FEEF16161706E807F907C0F0121626
:1055C0001306E407F50798F0621B730B840B950B29
:1055D00039F40A2661F0232B242B252B21F408957E
:1055E0000A2609F4A140A6958FEF811D811D08951B
:1055F00097F99F6780E870E060E008959FEF80EC86
:105600000895DF93CF931F930F93FF92EF92DF9252
:105610007B018C01689406C0DA2EEF010E94A42B56
:10562000FE01E894A5912591359145915591A6F3F8
:10563000EF010E94E828FE019701A801DA9469F7BA
:10564000DF90EF90FF900F911F91CF91DF91089520
:105650009F938F937F936F93FF93EF939B01AC0185
:105660000E94912BEF91FF910E94012B2F913F916E
:105670004F915F910C94912B00240A9416161706F3
:1056800018060906089500240A9412161306140633
:1056900005060895092E0394000C11F4882352F096
:1056A000BB0F40F4BF2B11F460FF04C06F5F7F4F4E
:1056B0008F4F9F4F089557FD9058440F551F59F035
:1056C0005F3F71F04795880F97FB991F61F09F3FEF
:1056D00079F087950895121613061406551FF2CF18
:1056E0004695F1DF08C0161617061806991FF1CF68
:1056F00086957105610508940895E894BB2766278F
:105700007727CB0197F908950E94D42A08F48FEFE8
:1057100008959B01AC0160E070E080E89FE30C9489
:10572000CF290E94A42B0C944A2B0E943C2B38F0CA
:105730000E94432B20F0952311F00C94F82A0C942E
:10574000FE2A11240C947E2B0E945B2B70F3959FF4
:10575000C1F3950F50E0551F629FF001729FBB2768
:10576000F00DB11D639FAA27F00DB11DAA1F649F04
:105770006627B00DA11D661F829F2227B00DA11DB7
:10578000621F739FB00DA11D621F839FA00D611D3D
:10579000221F749F3327A00D611D231F849F600D5E
:1057A000211D822F762F6A2F11249F5750409AF087
:1057B000F1F088234AF0EE0FFF1FBB1F661F771F13
:1057C000881F91505040A9F79E3F510580F00C94DE
:1057D000F82A0C947E2B5F3FE4F3983ED4F3869531
:1057E00077956795B795F795E7959F5FC1F7FE2B7E
:1057F000880F911D9695879597F9089519F416F4D9
:105800000C94FE2A0C944D2C0E94632BB8F3992320
:10581000C9F3B6F39F57550B87FF0E945B2C0024FA
:10582000A0E640EA900180585695979528F4805C50
:10583000660F771F881F20F026173707480730F4B8
:10584000621B730B840B202931294A2BA6951794D0
:105850000794202531254A2758F7660F771F881FA0
:1058600020F026173707480730F4620B730B840BC0
:10587000200D311D411DA09581F7B901842F91584C
:10588000880F9695879508959B01AC010C94912BF8
:105890000E94D42A880B990B08959F3F31F09150B4
:1058A00020F4879577956795B795880F911D969504
:1058B000879597F9089591505040660F771F881F7C
:1058C000D2F70895AA1BBB1B51E107C0AA1FBB1F3B
:1058D000A617B70710F0A61BB70B881F991F5A957C
:1058E000A9F780959095BC01CD01089597FB072EEF
:1058F00016F4009407D077FD09D00E94622C07FCB3
:1059000005D03EF4909581959F4F089570956195CF
:105910007F4F0895A1E21A2EAA1BBB1BFD010DC0EB
:10592000AA1FBB1FEE1FFF1FA217B307E407F5074F
:1059300020F0A21BB30BE40BF50B661F771F881F2B
:10594000991F1A9469F760957095809590959B01C1
:10595000AC01BD01CF010895052E97FB1EF4009404
:105960000E94C32C57FD07D00E948A2C07FC03D04D
:105970004EF40C94C32C50954095309521953F4F93
:105980004F4F5F4F089590958095709561957F4F2B
:105990008F4F9F4F0895EE0FFF1F0590F491E02D5C
:1059A00009940E94DC2CA59F900DB49F900DA49F9C
:1059B000800D911D11240895A29FB001B39FC001D5
:1059C000A39F700D811D1124911DB29F700D811D2B
:1059D0001124911D0895FB01DC0104C08D910190FB
:1059E000801921F441505040C8F7881B990B089545
:1059F000DC0101C06D9341505040E0F70895F999E2
:105A0000FECF92BD81BDF89A992780B50895262FC3
:105A1000F999FECF1FBA92BD81BD20BD0FB6F89493
:0E5A2000FA9AF99A0FBE01960895F894FFCFF6
:105A2E00E80354024A0200000000000000000000DB
:105A3E000000000000000000000000000000000058
:105A4E00000000230200E10000000000000101B888
:105A5E00AAB38DB4980D355D4CCD6C0CC92C365651
:105A6E0076264666FEF2ABC4AAF1DFDFBBAFDFDF00
:105A7E00B8AAAAAAB088C3C5C7D8B1B9F38BA391E7
:105A8E00B609B4D9DAB1B9F38BA391B6DAB4DA4D5B
:105A9E000954617020446574656374656420002048
:105AAE002F20004D094779726F20426961732000E3
:105ABE004D09416363656C204269617320004209A0
:105ACE00004D092053616D706C696E672E2E004D6E
